{
  "contractName": "BalancerConstants",
  "abi": [
    {
      "inputs": [],
      "name": "BONE",
      "outputs": [
        {
          "internalType": "uint256",
          "name": "",
          "type": "uint256"
        }
      ],
      "stateMutability": "view",
      "type": "function"
    },
    {
      "inputs": [],
      "name": "EXIT_FEE",
      "outputs": [
        {
          "internalType": "uint256",
          "name": "",
          "type": "uint256"
        }
      ],
      "stateMutability": "view",
      "type": "function"
    },
    {
      "inputs": [],
      "name": "MAX_ASSET_LIMIT",
      "outputs": [
        {
          "internalType": "uint256",
          "name": "",
          "type": "uint256"
        }
      ],
      "stateMutability": "view",
      "type": "function"
    },
    {
      "inputs": [],
      "name": "MAX_BALANCE",
      "outputs": [
        {
          "internalType": "uint256",
          "name": "",
          "type": "uint256"
        }
      ],
      "stateMutability": "view",
      "type": "function"
    },
    {
      "inputs": [],
      "name": "MAX_FEE",
      "outputs": [
        {
          "internalType": "uint256",
          "name": "",
          "type": "uint256"
        }
      ],
      "stateMutability": "view",
      "type": "function"
    },
    {
      "inputs": [],
      "name": "MAX_IN_RATIO",
      "outputs": [
        {
          "internalType": "uint256",
          "name": "",
          "type": "uint256"
        }
      ],
      "stateMutability": "view",
      "type": "function"
    },
    {
      "inputs": [],
      "name": "MAX_OUT_RATIO",
      "outputs": [
        {
          "internalType": "uint256",
          "name": "",
          "type": "uint256"
        }
      ],
      "stateMutability": "view",
      "type": "function"
    },
    {
      "inputs": [],
      "name": "MAX_POOL_SUPPLY",
      "outputs": [
        {
          "internalType": "uint256",
          "name": "",
          "type": "uint256"
        }
      ],
      "stateMutability": "view",
      "type": "function"
    },
    {
      "inputs": [],
      "name": "MAX_TOTAL_WEIGHT",
      "outputs": [
        {
          "internalType": "uint256",
          "name": "",
          "type": "uint256"
        }
      ],
      "stateMutability": "view",
      "type": "function"
    },
    {
      "inputs": [],
      "name": "MAX_UINT",
      "outputs": [
        {
          "internalType": "uint256",
          "name": "",
          "type": "uint256"
        }
      ],
      "stateMutability": "view",
      "type": "function"
    },
    {
      "inputs": [],
      "name": "MAX_WEIGHT",
      "outputs": [
        {
          "internalType": "uint256",
          "name": "",
          "type": "uint256"
        }
      ],
      "stateMutability": "view",
      "type": "function"
    },
    {
      "inputs": [],
      "name": "MIN_ASSET_LIMIT",
      "outputs": [
        {
          "internalType": "uint256",
          "name": "",
          "type": "uint256"
        }
      ],
      "stateMutability": "view",
      "type": "function"
    },
    {
      "inputs": [],
      "name": "MIN_BALANCE",
      "outputs": [
        {
          "internalType": "uint256",
          "name": "",
          "type": "uint256"
        }
      ],
      "stateMutability": "view",
      "type": "function"
    },
    {
      "inputs": [],
      "name": "MIN_FEE",
      "outputs": [
        {
          "internalType": "uint256",
          "name": "",
          "type": "uint256"
        }
      ],
      "stateMutability": "view",
      "type": "function"
    },
    {
      "inputs": [],
      "name": "MIN_POOL_SUPPLY",
      "outputs": [
        {
          "internalType": "uint256",
          "name": "",
          "type": "uint256"
        }
      ],
      "stateMutability": "view",
      "type": "function"
    },
    {
      "inputs": [],
      "name": "MIN_WEIGHT",
      "outputs": [
        {
          "internalType": "uint256",
          "name": "",
          "type": "uint256"
        }
      ],
      "stateMutability": "view",
      "type": "function"
    }
  ],
  "bytecode": "0x610259610026600b82828239805160001a60731461001957fe5b30600052607381538281f3fe730000000000000000000000000000000000000000301460806040526004361061010a5760003560e01c8063bc063e1a116100a1578063def92c6911610070578063def92c6914610171578063e4a28a521461010f578063e5b5019a14610179578063ec093021146101815761010a565b8063bc063e1a14610159578063c36596a614610129578063c6580d1214610161578063cc12f267146101695761010a565b806376c7a3c7116100dd57806376c7a3c7146101415780637e88781c14610149578063867378c514610141578063992e2a92146101515761010a565b806309a3bbe41461010f578063218b5382146101295780634d1acbab146101315780636fd34b9f14610139575b600080fd5b610117610189565b60408051918252519081900360200190f35b610117610196565b6101176101a2565b6101176101a7565b6101176101ac565b6101176101be565b6101176101cb565b6101176101d7565b6101176101e7565b6101176101ec565b6101176101fc565b61011761020d565b610117610213565b6802b5e3af16b188000081565b670de0b6b3a764000081565b600281565b600881565b620f4240670de0b6b3a76400005b0481565b68056bc75e2d6310000081565b6704a03ce68d21555681565b600a670de0b6b3a76400006101ba565b600081565b6b033b2e3c9fd0803ce800000081565b6c0c9f2c9cd04674edea4000000081565b60001981565b6002670de0b6b3a76400006101ba56fea2646970667358221220d8e4d4d0c8e113aab6f86e3a18b9ade5d67b84bbf7df18b86460b5e484c9a7c264736f6c634300060c0033",
  "immutableReferences": {},
  "source": "// SPDX-License-Identifier: GPL-3.0-or-later\npragma solidity 0.6.12;\n\n/**\n * @author Balancer Labs\n * @title Put all the constants in one place\n */\n\nlibrary BalancerConstants {\n    // State variables (must be constant in a library)\n\n    // B \"ONE\" - all math is in the \"realm\" of 10 ** 18;\n    // where numeric 1 = 10 ** 18\n    uint public constant BONE = 10**18;\n    uint public constant MIN_WEIGHT = BONE;\n    uint public constant MAX_WEIGHT = BONE * 50;\n    uint public constant MAX_TOTAL_WEIGHT = BONE * 50;\n    uint public constant MIN_BALANCE = BONE / 10**6;\n    uint public constant MAX_BALANCE = BONE * 10**12;\n    uint public constant MIN_POOL_SUPPLY = BONE * 100;\n    uint public constant MAX_POOL_SUPPLY = BONE * 10**9;\n    uint public constant MIN_FEE = BONE / 10**6;\n    uint public constant MAX_FEE = BONE / 10;\n    // EXIT_FEE must always be zero, or ConfigurableRightsPool._pushUnderlying will fail\n    uint public constant EXIT_FEE = 0;\n    uint public constant MAX_IN_RATIO = BONE / 2;\n    uint public constant MAX_OUT_RATIO = (BONE / 3) + 1 wei;\n    // Must match BConst.MIN_BOUND_TOKENS and BConst.MAX_BOUND_TOKENS\n    uint public constant MIN_ASSET_LIMIT = 2;\n    uint public constant MAX_ASSET_LIMIT = 8;\n    uint public constant MAX_UINT = uint(-1);\n}\n",
  "sourcePath": "/home/thedavidmeister/configurable-rights-pool/libraries/BalancerConstants.sol",
  "compiler": {
    "name": "solc",
    "version": "0.6.12+commit.27d51765.Emscripten.clang"
  },
  "schemaVersion": "3.4.3",
  "updatedAt": "2021-08-28T06:05:41.253Z",
  "devdoc": {
    "author": "Balancer Labs",
    "kind": "dev",
    "methods": {},
    "title": "Put all the constants in one place",
    "version": 1
  },
  "userdoc": {
    "kind": "user",
    "methods": {},
    "version": 1
  }
}