{
  "contractName": "BalancerSafeMathMock",
  "abi": [
    {
      "inputs": [
        {
          "internalType": "uint256",
          "name": "a",
          "type": "uint256"
        },
        {
          "internalType": "uint256",
          "name": "b",
          "type": "uint256"
        }
      ],
      "name": "bmul",
      "outputs": [
        {
          "internalType": "uint256",
          "name": "",
          "type": "uint256"
        }
      ],
      "stateMutability": "pure",
      "type": "function"
    },
    {
      "inputs": [
        {
          "internalType": "uint256",
          "name": "a",
          "type": "uint256"
        },
        {
          "internalType": "uint256",
          "name": "b",
          "type": "uint256"
        }
      ],
      "name": "bdiv",
      "outputs": [
        {
          "internalType": "uint256",
          "name": "",
          "type": "uint256"
        }
      ],
      "stateMutability": "pure",
      "type": "function"
    },
    {
      "inputs": [
        {
          "internalType": "uint256",
          "name": "a",
          "type": "uint256"
        },
        {
          "internalType": "uint256",
          "name": "b",
          "type": "uint256"
        }
      ],
      "name": "bsub",
      "outputs": [
        {
          "internalType": "uint256",
          "name": "",
          "type": "uint256"
        }
      ],
      "stateMutability": "pure",
      "type": "function"
    },
    {
      "inputs": [
        {
          "internalType": "uint256",
          "name": "a",
          "type": "uint256"
        },
        {
          "internalType": "uint256",
          "name": "b",
          "type": "uint256"
        }
      ],
      "name": "badd",
      "outputs": [
        {
          "internalType": "uint256",
          "name": "",
          "type": "uint256"
        }
      ],
      "stateMutability": "pure",
      "type": "function"
    },
    {
      "inputs": [
        {
          "internalType": "uint256",
          "name": "a",
          "type": "uint256"
        },
        {
          "internalType": "uint256",
          "name": "b",
          "type": "uint256"
        }
      ],
      "name": "bmod",
      "outputs": [
        {
          "internalType": "uint256",
          "name": "",
          "type": "uint256"
        }
      ],
      "stateMutability": "pure",
      "type": "function"
    },
    {
      "inputs": [
        {
          "internalType": "uint256",
          "name": "a",
          "type": "uint256"
        },
        {
          "internalType": "uint256",
          "name": "b",
          "type": "uint256"
        }
      ],
      "name": "bmax",
      "outputs": [
        {
          "internalType": "uint256",
          "name": "",
          "type": "uint256"
        }
      ],
      "stateMutability": "pure",
      "type": "function"
    },
    {
      "inputs": [
        {
          "internalType": "uint256",
          "name": "a",
          "type": "uint256"
        },
        {
          "internalType": "uint256",
          "name": "b",
          "type": "uint256"
        }
      ],
      "name": "bmin",
      "outputs": [
        {
          "internalType": "uint256",
          "name": "",
          "type": "uint256"
        }
      ],
      "stateMutability": "pure",
      "type": "function"
    },
    {
      "inputs": [
        {
          "internalType": "uint256",
          "name": "a",
          "type": "uint256"
        },
        {
          "internalType": "uint256",
          "name": "b",
          "type": "uint256"
        }
      ],
      "name": "baverage",
      "outputs": [
        {
          "internalType": "uint256",
          "name": "",
          "type": "uint256"
        }
      ],
      "stateMutability": "pure",
      "type": "function"
    }
  ],
  "bytecode": "0x608060405234801561001057600080fd5b506105a5806100206000396000f3fe608060405234801561001057600080fd5b50600436106100885760003560e01c80638c051bf31161005b5780638c051bf31461012b5780638f73b80c1461014e578063a0a034b414610171578063dd6d85c41461019457610088565b80630b71b95c1461008d5780633cf3c7d4146100c25780634b293a61146100e55780637673eb1114610108575b600080fd5b6100b0600480360360408110156100a357600080fd5b50803590602001356101b7565b60408051918252519081900360200190f35b6100b0600480360360408110156100d857600080fd5b50803590602001356101cc565b6100b0600480360360408110156100fb57600080fd5b50803590602001356101d8565b6100b06004803603604081101561011e57600080fd5b50803590602001356101e4565b6100b06004803603604081101561014157600080fd5b50803590602001356101f0565b6100b06004803603604081101561016457600080fd5b50803590602001356101fc565b6100b06004803603604081101561018757600080fd5b5080359060200135610208565b6100b0600480360360408110156101aa57600080fd5b5080359060200135610214565b60006101c38383610220565b90505b92915050565b60006101c3838361026d565b60006101c383836102cf565b60006101c38383610329565b60006101c38383610439565b60006101c383836104ff565b60006101c38383610515565b60006101c38383610525565b6000828201838110156101c3576040805162461bcd60e51b815260206004820152601060248201526f4552525f4144445f4f564552464c4f5760801b604482015290519081900360640190fd5b600080600061027c858561054a565b9150915080156102c7576040805162461bcd60e51b81526020600482015260116024820152704552525f5355425f554e444552464c4f5760781b604482015290519081900360640190fd5b509392505050565b600081610318576040805162461bcd60e51b81526020600482015260126024820152714552525f4d4f44554c4f5f42595f5a45524f60701b604482015290519081900360640190fd5b81838161032157fe5b069392505050565b60008161036c576040805162461bcd60e51b815260206004820152600c60248201526b4552525f4449565f5a45524f60a01b604482015290519081900360640190fd5b82610379575060006101c6565b670de0b6b3a76400008381029084828161038f57fe5b04146103d5576040805162461bcd60e51b815260206004820152601060248201526f11549497d1125597d25395115493905360821b604482015290519081900360640190fd5b60028304810181811015610423576040805162461bcd60e51b815260206004820152601060248201526f11549497d1125597d25395115493905360821b604482015290519081900360640190fd5b600084828161042e57fe5b049695505050505050565b600082610448575060006101c6565b8282028284828161045557fe5b041461049b576040805162461bcd60e51b815260206004820152601060248201526f4552525f4d554c5f4f564552464c4f5760801b604482015290519081900360640190fd5b6706f05b59d3b200008101818110156104ee576040805162461bcd60e51b815260206004820152601060248201526f4552525f4d554c5f4f564552464c4f5760801b604482015290519081900360640190fd5b6000670de0b6b3a76400008261042e565b600081831061050e57816101c3565b5090919050565b60008183101561050e57816101c3565b6000600280830660028506018161053857fe5b04600283046002850401019392505050565b6000808383116105605750508082036000610568565b505081810360015b925092905056fea2646970667358221220bfc0d2483c469f03269bc45b46a5d38f2e85825773aa6fe1423953d6c319621064736f6c634300060c0033",
  "immutableReferences": {},
  "source": "// SPDX-License-Identifier: MIT\npragma solidity 0.6.12;\n\n// Imports\n\nimport \"../../libraries/BalancerSafeMath.sol\";\n\n// Contracts\n\n/*\n * @author Balancer Labs\n * @title Wrap BalancerSafeMath for testing\n*/\ncontract BalancerSafeMathMock {\n    function bmul(uint a, uint b) external pure returns (uint) {\n        return BalancerSafeMath.bmul(a, b);\n    }\n\n    function bdiv(uint a, uint b) external pure returns (uint) {\n        return BalancerSafeMath.bdiv(a, b);\n    }\n\n    function bsub(uint a, uint b) external pure returns (uint) {\n        return BalancerSafeMath.bsub(a, b);\n    }\n\n    function badd(uint a, uint b) external pure returns (uint) {\n        return BalancerSafeMath.badd(a, b);\n    }\n\n    function bmod(uint a, uint b) external pure returns (uint) {\n        return BalancerSafeMath.bmod(a, b);\n    }\n\n    function bmax(uint a, uint b) external pure returns (uint) {\n        return BalancerSafeMath.bmax(a, b);\n    }\n\n    function bmin(uint a, uint b) external pure returns (uint) {\n        return BalancerSafeMath.bmin(a, b);\n    }\n\n    function baverage(uint a, uint b) external pure returns (uint) {\n        return BalancerSafeMath.baverage(a, b);\n    }\n}",
  "sourcePath": "/home/thedavidmeister/configurable-rights-pool/contracts/mocks/BalancerSafeMathMock.sol",
  "compiler": {
    "name": "solc",
    "version": "0.6.12+commit.27d51765.Emscripten.clang"
  },
  "schemaVersion": "3.4.3",
  "updatedAt": "2021-08-28T06:05:41.165Z",
  "devdoc": {
    "kind": "dev",
    "methods": {},
    "version": 1
  },
  "userdoc": {
    "kind": "user",
    "methods": {},
    "version": 1
  }
}