{
  "contractName": "BToken",
  "abi": [
    {
      "anonymous": false,
      "inputs": [
        {
          "indexed": true,
          "internalType": "address",
          "name": "owner",
          "type": "address"
        },
        {
          "indexed": true,
          "internalType": "address",
          "name": "spender",
          "type": "address"
        },
        {
          "indexed": false,
          "internalType": "uint256",
          "name": "value",
          "type": "uint256"
        }
      ],
      "name": "Approval",
      "type": "event"
    },
    {
      "anonymous": false,
      "inputs": [
        {
          "indexed": true,
          "internalType": "address",
          "name": "from",
          "type": "address"
        },
        {
          "indexed": true,
          "internalType": "address",
          "name": "to",
          "type": "address"
        },
        {
          "indexed": false,
          "internalType": "uint256",
          "name": "value",
          "type": "uint256"
        }
      ],
      "name": "Transfer",
      "type": "event"
    },
    {
      "inputs": [],
      "name": "BONE",
      "outputs": [
        {
          "internalType": "uint256",
          "name": "",
          "type": "uint256"
        }
      ],
      "stateMutability": "view",
      "type": "function"
    },
    {
      "inputs": [],
      "name": "BPOW_PRECISION",
      "outputs": [
        {
          "internalType": "uint256",
          "name": "",
          "type": "uint256"
        }
      ],
      "stateMutability": "view",
      "type": "function"
    },
    {
      "inputs": [],
      "name": "EXIT_FEE",
      "outputs": [
        {
          "internalType": "uint256",
          "name": "",
          "type": "uint256"
        }
      ],
      "stateMutability": "view",
      "type": "function"
    },
    {
      "inputs": [],
      "name": "INIT_POOL_SUPPLY",
      "outputs": [
        {
          "internalType": "uint256",
          "name": "",
          "type": "uint256"
        }
      ],
      "stateMutability": "view",
      "type": "function"
    },
    {
      "inputs": [],
      "name": "MAX_BOUND_TOKENS",
      "outputs": [
        {
          "internalType": "uint256",
          "name": "",
          "type": "uint256"
        }
      ],
      "stateMutability": "view",
      "type": "function"
    },
    {
      "inputs": [],
      "name": "MAX_BPOW_BASE",
      "outputs": [
        {
          "internalType": "uint256",
          "name": "",
          "type": "uint256"
        }
      ],
      "stateMutability": "view",
      "type": "function"
    },
    {
      "inputs": [],
      "name": "MAX_FEE",
      "outputs": [
        {
          "internalType": "uint256",
          "name": "",
          "type": "uint256"
        }
      ],
      "stateMutability": "view",
      "type": "function"
    },
    {
      "inputs": [],
      "name": "MAX_IN_RATIO",
      "outputs": [
        {
          "internalType": "uint256",
          "name": "",
          "type": "uint256"
        }
      ],
      "stateMutability": "view",
      "type": "function"
    },
    {
      "inputs": [],
      "name": "MAX_OUT_RATIO",
      "outputs": [
        {
          "internalType": "uint256",
          "name": "",
          "type": "uint256"
        }
      ],
      "stateMutability": "view",
      "type": "function"
    },
    {
      "inputs": [],
      "name": "MAX_TOTAL_WEIGHT",
      "outputs": [
        {
          "internalType": "uint256",
          "name": "",
          "type": "uint256"
        }
      ],
      "stateMutability": "view",
      "type": "function"
    },
    {
      "inputs": [],
      "name": "MAX_WEIGHT",
      "outputs": [
        {
          "internalType": "uint256",
          "name": "",
          "type": "uint256"
        }
      ],
      "stateMutability": "view",
      "type": "function"
    },
    {
      "inputs": [],
      "name": "MIN_BALANCE",
      "outputs": [
        {
          "internalType": "uint256",
          "name": "",
          "type": "uint256"
        }
      ],
      "stateMutability": "view",
      "type": "function"
    },
    {
      "inputs": [],
      "name": "MIN_BOUND_TOKENS",
      "outputs": [
        {
          "internalType": "uint256",
          "name": "",
          "type": "uint256"
        }
      ],
      "stateMutability": "view",
      "type": "function"
    },
    {
      "inputs": [],
      "name": "MIN_BPOW_BASE",
      "outputs": [
        {
          "internalType": "uint256",
          "name": "",
          "type": "uint256"
        }
      ],
      "stateMutability": "view",
      "type": "function"
    },
    {
      "inputs": [],
      "name": "MIN_FEE",
      "outputs": [
        {
          "internalType": "uint256",
          "name": "",
          "type": "uint256"
        }
      ],
      "stateMutability": "view",
      "type": "function"
    },
    {
      "inputs": [],
      "name": "MIN_WEIGHT",
      "outputs": [
        {
          "internalType": "uint256",
          "name": "",
          "type": "uint256"
        }
      ],
      "stateMutability": "view",
      "type": "function"
    },
    {
      "inputs": [],
      "name": "getColor",
      "outputs": [
        {
          "internalType": "bytes32",
          "name": "",
          "type": "bytes32"
        }
      ],
      "stateMutability": "view",
      "type": "function"
    },
    {
      "inputs": [],
      "name": "name",
      "outputs": [
        {
          "internalType": "string",
          "name": "",
          "type": "string"
        }
      ],
      "stateMutability": "view",
      "type": "function"
    },
    {
      "inputs": [],
      "name": "symbol",
      "outputs": [
        {
          "internalType": "string",
          "name": "",
          "type": "string"
        }
      ],
      "stateMutability": "view",
      "type": "function"
    },
    {
      "inputs": [],
      "name": "decimals",
      "outputs": [
        {
          "internalType": "uint8",
          "name": "",
          "type": "uint8"
        }
      ],
      "stateMutability": "view",
      "type": "function"
    },
    {
      "inputs": [
        {
          "internalType": "address",
          "name": "src",
          "type": "address"
        },
        {
          "internalType": "address",
          "name": "dst",
          "type": "address"
        }
      ],
      "name": "allowance",
      "outputs": [
        {
          "internalType": "uint256",
          "name": "",
          "type": "uint256"
        }
      ],
      "stateMutability": "view",
      "type": "function"
    },
    {
      "inputs": [
        {
          "internalType": "address",
          "name": "whom",
          "type": "address"
        }
      ],
      "name": "balanceOf",
      "outputs": [
        {
          "internalType": "uint256",
          "name": "",
          "type": "uint256"
        }
      ],
      "stateMutability": "view",
      "type": "function"
    },
    {
      "inputs": [],
      "name": "totalSupply",
      "outputs": [
        {
          "internalType": "uint256",
          "name": "",
          "type": "uint256"
        }
      ],
      "stateMutability": "view",
      "type": "function"
    },
    {
      "inputs": [
        {
          "internalType": "address",
          "name": "dst",
          "type": "address"
        },
        {
          "internalType": "uint256",
          "name": "amt",
          "type": "uint256"
        }
      ],
      "name": "approve",
      "outputs": [
        {
          "internalType": "bool",
          "name": "",
          "type": "bool"
        }
      ],
      "stateMutability": "nonpayable",
      "type": "function"
    },
    {
      "inputs": [
        {
          "internalType": "address",
          "name": "dst",
          "type": "address"
        },
        {
          "internalType": "uint256",
          "name": "amt",
          "type": "uint256"
        }
      ],
      "name": "increaseApproval",
      "outputs": [
        {
          "internalType": "bool",
          "name": "",
          "type": "bool"
        }
      ],
      "stateMutability": "nonpayable",
      "type": "function"
    },
    {
      "inputs": [
        {
          "internalType": "address",
          "name": "dst",
          "type": "address"
        },
        {
          "internalType": "uint256",
          "name": "amt",
          "type": "uint256"
        }
      ],
      "name": "decreaseApproval",
      "outputs": [
        {
          "internalType": "bool",
          "name": "",
          "type": "bool"
        }
      ],
      "stateMutability": "nonpayable",
      "type": "function"
    },
    {
      "inputs": [
        {
          "internalType": "address",
          "name": "dst",
          "type": "address"
        },
        {
          "internalType": "uint256",
          "name": "amt",
          "type": "uint256"
        }
      ],
      "name": "transfer",
      "outputs": [
        {
          "internalType": "bool",
          "name": "",
          "type": "bool"
        }
      ],
      "stateMutability": "nonpayable",
      "type": "function"
    },
    {
      "inputs": [
        {
          "internalType": "address",
          "name": "src",
          "type": "address"
        },
        {
          "internalType": "address",
          "name": "dst",
          "type": "address"
        },
        {
          "internalType": "uint256",
          "name": "amt",
          "type": "uint256"
        }
      ],
      "name": "transferFrom",
      "outputs": [
        {
          "internalType": "bool",
          "name": "",
          "type": "bool"
        }
      ],
      "stateMutability": "nonpayable",
      "type": "function"
    }
  ],
  "bytecode": "0x60c0604052601360808190527f42616c616e63657220506f6f6c20546f6b656e0000000000000000000000000060a090815261003e9160039190610089565b506040805180820190915260038082526210941560ea1b602090920191825261006991600491610089565b506005805460ff1916601217905534801561008357600080fd5b5061011c565b828054600181600116156101000203166002900490600052602060002090601f016020900481019282601f106100ca57805160ff19168380011785556100f7565b828001600101855582156100f7579182015b828111156100f75782518255916020019190600101906100dc565b50610103929150610107565b5090565b5b808211156101035760008155600101610108565b610baf8061012b6000396000f3fe608060405234801561001057600080fd5b50600436106101c45760003560e01c8063992e2a92116100f9578063bc694ea211610097578063d73dd62311610071578063d73dd623146103ea578063dd62ed3e14610416578063e4a28a5214610286578063ec09302114610444576101c4565b8063bc694ea2146103da578063c36596a6146102b0578063c6580d12146103e2576101c4565b8063b0e0d136116100d3578063b0e0d136146103ba578063b7b800a4146103c2578063ba019dab146103ca578063bc063e1a146103d2576101c4565b8063992e2a921461037e5780639a86139b14610386578063a9059cbb1461038e576101c4565b8063313ce5671161016657806376c7a3c71161014057806376c7a3c71461035e578063867378c5146103665780639381cd2b1461036e57806395d89b4114610376576101c4565b8063313ce567146102ee578063661884631461030c57806370a0823114610338576101c4565b806318160ddd116101a257806318160ddd146102a0578063189d00ca146102a8578063218b5382146102b057806323b872dd146102b8576101c4565b806306fdde03146101c9578063095ea7b31461024657806309a3bbe414610286575b600080fd5b6101d161044c565b6040805160208082528351818301528351919283929083019185019080838360005b8381101561020b5781810151838201526020016101f3565b50505050905090810190601f1680156102385780820380516001836020036101000a031916815260200191505b509250505060405180910390f35b6102726004803603604081101561025c57600080fd5b506001600160a01b0381351690602001356104e2565b604080519115158252519081900360200190f35b61028e610536565b60408051918252519081900360200190f35b61028e610543565b61028e610549565b61028e61055d565b610272600480360360608110156102ce57600080fd5b506001600160a01b03813581169160208101359091169060400135610569565b6102f66106c3565b6040805160ff9092168252519081900360200190f35b6102726004803603604081101561032257600080fd5b506001600160a01b0381351690602001356106cc565b61028e6004803603602081101561034e57600080fd5b50356001600160a01b03166107a4565b61028e6107bf565b61028e6107d1565b61028e6107e5565b6101d16107f2565b61028e610853565b61028e61085f565b610272600480360360408110156103a457600080fd5b506001600160a01b03813516906020013561086c565b61028e610882565b61028e610887565b61028e61088c565b61028e610891565b61028e6108a1565b61028e6108ad565b6102726004803603604081101561040057600080fd5b506001600160a01b0381351690602001356108b2565b61028e6004803603604081101561042c57600080fd5b506001600160a01b0381358116916020013516610933565b61028e61095e565b60038054604080516020601f60026000196101006001881615020190951694909404938401819004810282018101909252828152606093909290918301828280156104d85780601f106104ad576101008083540402835291602001916104d8565b820191906000526020600020905b8154815290600101906020018083116104bb57829003601f168201915b5050505050905090565b3360008181526001602090815260408083206001600160a01b03871680855290835281842086905581518681529151939490939092600080516020610b5a833981519152928290030190a350600192915050565b6802b5e3af16b188000081565b60025490565b6402540be400670de0b6b3a76400005b0481565b670de0b6b3a764000081565b6000336001600160a01b03851614806105a557506001600160a01b03841660009081526001602090815260408083203384529091529020548211155b6105ee576040805162461bcd60e51b815260206004820152601560248201527422a9292fa12a27a5a2a72fa120a22fa1a0a62622a960591b604482015290519081900360640190fd5b6105f984848461096e565b336001600160a01b0385161480159061063757506001600160a01b038416600090815260016020908152604080832033845290915290205460001914155b156106b9576001600160a01b038416600090815260016020908152604080832033845290915290205461066a9083610a7e565b6001600160a01b0385811660009081526001602090815260408083203380855290835292819020859055805194855251928716939192600080516020610b5a8339815191529281900390910190a35b5060019392505050565b60055460ff1690565b3360009081526001602090815260408083206001600160a01b038616845290915281205480831115610721573360009081526001602090815260408083206001600160a01b0388168452909152812055610750565b61072b8184610a7e565b3360009081526001602090815260408083206001600160a01b03891684529091529020555b3360008181526001602090815260408083206001600160a01b038916808552908352928190205481519081529051929392600080516020610b5a833981519152929181900390910190a35060019392505050565b6001600160a01b031660009081526020819052604090205490565b620f4240670de0b6b3a7640000610559565b64e8d4a51000670de0b6b3a7640000610559565b68056bc75e2d6310000081565b60048054604080516020601f60026000196101006001881615020190951694909404938401819004810282018101909252828152606093909290918301828280156104d85780601f106104ad576101008083540402835291602001916104d8565b6704a03ce68d21555681565b6542524f4e5a4560d01b90565b600061087933848461096e565b50600192915050565b600881565b600281565b600181565b600a670de0b6b3a7640000610559565b671bc16d674ec7ffff81565b600081565b3360009081526001602090815260408083206001600160a01b03861684529091528120546108e09083610ae0565b3360008181526001602090815260408083206001600160a01b038916808552908352928190208590558051948552519193600080516020610b5a833981519152929081900390910190a350600192915050565b6001600160a01b03918216600090815260016020908152604080832093909416825291909152205490565b6002670de0b6b3a7640000610559565b6001600160a01b0383166000908152602081905260409020548111156109d2576040805162461bcd60e51b815260206004820152601460248201527311549497d25394d551919250d251539517d0905360621b604482015290519081900360640190fd5b6001600160a01b0383166000908152602081905260409020546109f59082610a7e565b6001600160a01b038085166000908152602081905260408082209390935590841681522054610a249082610ae0565b6001600160a01b038084166000818152602081815260409182902094909455805185815290519193928716927fddf252ad1be2c89b69c2b068fc378daa952ba7f163c4a11628f55a4df523b3ef92918290030190a3505050565b6000806000610a8d8585610b34565b915091508015610ad8576040805162461bcd60e51b81526020600482015260116024820152704552525f5355425f554e444552464c4f5760781b604482015290519081900360640190fd5b509392505050565b600082820183811015610b2d576040805162461bcd60e51b815260206004820152601060248201526f4552525f4144445f4f564552464c4f5760801b604482015290519081900360640190fd5b9392505050565b600080828410610b4a5750508082036000610b52565b505081810360015b925092905056fe8c5be1e5ebec7d5bd14f71427d1e84f3dd0314c0f7b2291e5b200ac8c7c3b925a26469706673582212208b92e9570a06850c945d7d0e2af3490f023bf493537325c7a1432f4fad2f2b4f64736f6c634300060c0033",
  "immutableReferences": {},
  "source": "// SPDX-License-Identifier: GPL-3.0-or-later\npragma solidity ^0.6.6;\n\nimport \"./BNum.sol\";\nimport \"../PCToken.sol\";\n\n// Highly opinionated token implementation\n\n/*\ninterface IERC20 {\n    event Approval(address indexed src, address indexed dst, uint amt);\n    event Transfer(address indexed src, address indexed dst, uint amt);\n\n    function totalSupply() external view returns (uint);\n    function balanceOf(address whom) external view returns (uint);\n    function allowance(address src, address dst) external view returns (uint);\n\n    function approve(address dst, uint amt) external returns (bool);\n    function transfer(address dst, uint amt) external returns (bool);\n    function transferFrom(\n        address src, address dst, uint amt\n    ) external returns (bool);\n}\n*/\n\n// Core contract; can't be changed. So disable solhint (reminder for v2)\n\n/* solhint-disable func-order */\n\ncontract BTokenBase is BNum {\n\n    mapping(address => uint)                   internal _balance;\n    mapping(address => mapping(address=>uint)) internal _allowance;\n    uint internal _totalSupply;\n\n    event Approval(address indexed src, address indexed dst, uint amt);\n    event Transfer(address indexed src, address indexed dst, uint amt);\n\n    function _mint(uint amt) internal {\n        _balance[address(this)] = badd(_balance[address(this)], amt);\n        _totalSupply = badd(_totalSupply, amt);\n        emit Transfer(address(0), address(this), amt);\n    }\n\n    function _burn(uint amt) internal {\n        require(_balance[address(this)] >= amt, \"ERR_INSUFFICIENT_BAL\");\n        _balance[address(this)] = bsub(_balance[address(this)], amt);\n        _totalSupply = bsub(_totalSupply, amt);\n        emit Transfer(address(this), address(0), amt);\n    }\n\n    function _move(address src, address dst, uint amt) internal {\n        require(_balance[src] >= amt, \"ERR_INSUFFICIENT_BAL\");\n        _balance[src] = bsub(_balance[src], amt);\n        _balance[dst] = badd(_balance[dst], amt);\n        emit Transfer(src, dst, amt);\n    }\n\n    function _push(address to, uint amt) internal {\n        _move(address(this), to, amt);\n    }\n\n    function _pull(address from, uint amt) internal {\n        _move(from, address(this), amt);\n    }\n}\n\ncontract BToken is BTokenBase, IERC20 {\n\n    string  private _name     = \"Balancer Pool Token\";\n    string  private _symbol   = \"BPT\";\n    uint8   private _decimals = 18;\n\n    function name() public view returns (string memory) {\n        return _name;\n    }\n\n    function symbol() public view returns (string memory) {\n        return _symbol;\n    }\n\n    function decimals() public view returns(uint8) {\n        return _decimals;\n    }\n\n    function allowance(address src, address dst) external view override returns (uint) {\n        return _allowance[src][dst];\n    }\n\n    function balanceOf(address whom) external view override returns (uint) {\n        return _balance[whom];\n    }\n\n    function totalSupply() public view override returns (uint) {\n        return _totalSupply;\n    }\n\n    function approve(address dst, uint amt) external override returns (bool) {\n        _allowance[msg.sender][dst] = amt;\n        emit Approval(msg.sender, dst, amt);\n        return true;\n    }\n\n    function increaseApproval(address dst, uint amt) external returns (bool) {\n        _allowance[msg.sender][dst] = badd(_allowance[msg.sender][dst], amt);\n        emit Approval(msg.sender, dst, _allowance[msg.sender][dst]);\n        return true;\n    }\n\n    function decreaseApproval(address dst, uint amt) external returns (bool) {\n        uint oldValue = _allowance[msg.sender][dst];\n        if (amt > oldValue) {\n            _allowance[msg.sender][dst] = 0;\n        } else {\n            _allowance[msg.sender][dst] = bsub(oldValue, amt);\n        }\n        emit Approval(msg.sender, dst, _allowance[msg.sender][dst]);\n        return true;\n    }\n\n    function transfer(address dst, uint amt) external override returns (bool) {\n        _move(msg.sender, dst, amt);\n        return true;\n    }\n\n    function transferFrom(address src, address dst, uint amt) external override returns (bool) {\n        require(msg.sender == src || amt <= _allowance[src][msg.sender], \"ERR_BTOKEN_BAD_CALLER\");\n        _move(src, dst, amt);\n        if (msg.sender != src && _allowance[src][msg.sender] != uint256(-1)) {\n            _allowance[src][msg.sender] = bsub(_allowance[src][msg.sender], amt);\n            emit Approval(msg.sender, dst, _allowance[src][msg.sender]);\n        }\n        return true;\n    }\n}\n",
  "sourcePath": "/home/thedavidmeister/configurable-rights-pool/contracts/test/BToken.sol",
  "compiler": {
    "name": "solc",
    "version": "0.6.12+commit.27d51765.Emscripten.clang"
  },
  "schemaVersion": "3.4.3",
  "updatedAt": "2021-08-28T06:05:41.203Z",
  "devdoc": {
    "kind": "dev",
    "methods": {},
    "version": 1
  },
  "userdoc": {
    "kind": "user",
    "methods": {},
    "version": 1
  }
}