{
  "contractName": "BTokenBase",
  "abi": [
    {
      "anonymous": false,
      "inputs": [
        {
          "indexed": true,
          "internalType": "address",
          "name": "src",
          "type": "address"
        },
        {
          "indexed": true,
          "internalType": "address",
          "name": "dst",
          "type": "address"
        },
        {
          "indexed": false,
          "internalType": "uint256",
          "name": "amt",
          "type": "uint256"
        }
      ],
      "name": "Approval",
      "type": "event"
    },
    {
      "anonymous": false,
      "inputs": [
        {
          "indexed": true,
          "internalType": "address",
          "name": "src",
          "type": "address"
        },
        {
          "indexed": true,
          "internalType": "address",
          "name": "dst",
          "type": "address"
        },
        {
          "indexed": false,
          "internalType": "uint256",
          "name": "amt",
          "type": "uint256"
        }
      ],
      "name": "Transfer",
      "type": "event"
    },
    {
      "inputs": [],
      "name": "BONE",
      "outputs": [
        {
          "internalType": "uint256",
          "name": "",
          "type": "uint256"
        }
      ],
      "stateMutability": "view",
      "type": "function"
    },
    {
      "inputs": [],
      "name": "BPOW_PRECISION",
      "outputs": [
        {
          "internalType": "uint256",
          "name": "",
          "type": "uint256"
        }
      ],
      "stateMutability": "view",
      "type": "function"
    },
    {
      "inputs": [],
      "name": "EXIT_FEE",
      "outputs": [
        {
          "internalType": "uint256",
          "name": "",
          "type": "uint256"
        }
      ],
      "stateMutability": "view",
      "type": "function"
    },
    {
      "inputs": [],
      "name": "INIT_POOL_SUPPLY",
      "outputs": [
        {
          "internalType": "uint256",
          "name": "",
          "type": "uint256"
        }
      ],
      "stateMutability": "view",
      "type": "function"
    },
    {
      "inputs": [],
      "name": "MAX_BOUND_TOKENS",
      "outputs": [
        {
          "internalType": "uint256",
          "name": "",
          "type": "uint256"
        }
      ],
      "stateMutability": "view",
      "type": "function"
    },
    {
      "inputs": [],
      "name": "MAX_BPOW_BASE",
      "outputs": [
        {
          "internalType": "uint256",
          "name": "",
          "type": "uint256"
        }
      ],
      "stateMutability": "view",
      "type": "function"
    },
    {
      "inputs": [],
      "name": "MAX_FEE",
      "outputs": [
        {
          "internalType": "uint256",
          "name": "",
          "type": "uint256"
        }
      ],
      "stateMutability": "view",
      "type": "function"
    },
    {
      "inputs": [],
      "name": "MAX_IN_RATIO",
      "outputs": [
        {
          "internalType": "uint256",
          "name": "",
          "type": "uint256"
        }
      ],
      "stateMutability": "view",
      "type": "function"
    },
    {
      "inputs": [],
      "name": "MAX_OUT_RATIO",
      "outputs": [
        {
          "internalType": "uint256",
          "name": "",
          "type": "uint256"
        }
      ],
      "stateMutability": "view",
      "type": "function"
    },
    {
      "inputs": [],
      "name": "MAX_TOTAL_WEIGHT",
      "outputs": [
        {
          "internalType": "uint256",
          "name": "",
          "type": "uint256"
        }
      ],
      "stateMutability": "view",
      "type": "function"
    },
    {
      "inputs": [],
      "name": "MAX_WEIGHT",
      "outputs": [
        {
          "internalType": "uint256",
          "name": "",
          "type": "uint256"
        }
      ],
      "stateMutability": "view",
      "type": "function"
    },
    {
      "inputs": [],
      "name": "MIN_BALANCE",
      "outputs": [
        {
          "internalType": "uint256",
          "name": "",
          "type": "uint256"
        }
      ],
      "stateMutability": "view",
      "type": "function"
    },
    {
      "inputs": [],
      "name": "MIN_BOUND_TOKENS",
      "outputs": [
        {
          "internalType": "uint256",
          "name": "",
          "type": "uint256"
        }
      ],
      "stateMutability": "view",
      "type": "function"
    },
    {
      "inputs": [],
      "name": "MIN_BPOW_BASE",
      "outputs": [
        {
          "internalType": "uint256",
          "name": "",
          "type": "uint256"
        }
      ],
      "stateMutability": "view",
      "type": "function"
    },
    {
      "inputs": [],
      "name": "MIN_FEE",
      "outputs": [
        {
          "internalType": "uint256",
          "name": "",
          "type": "uint256"
        }
      ],
      "stateMutability": "view",
      "type": "function"
    },
    {
      "inputs": [],
      "name": "MIN_WEIGHT",
      "outputs": [
        {
          "internalType": "uint256",
          "name": "",
          "type": "uint256"
        }
      ],
      "stateMutability": "view",
      "type": "function"
    },
    {
      "inputs": [],
      "name": "getColor",
      "outputs": [
        {
          "internalType": "bytes32",
          "name": "",
          "type": "bytes32"
        }
      ],
      "stateMutability": "view",
      "type": "function"
    }
  ],
  "bytecode": "0x608060405234801561001057600080fd5b50610289806100206000396000f3fe608060405234801561001057600080fd5b506004361061010b5760003560e01c8063b0e0d136116100a2578063bc694ea211610071578063bc694ea214610182578063c36596a614610132578063c6580d121461018a578063e4a28a5214610110578063ec093021146101925761010b565b8063b0e0d13614610162578063b7b800a41461016a578063ba019dab14610172578063bc063e1a1461017a5761010b565b8063867378c5116100de578063867378c5146101425780639381cd2b1461014a578063992e2a92146101525780639a86139b1461015a5761010b565b806309a3bbe414610110578063189d00ca1461012a578063218b53821461013257806376c7a3c71461013a575b600080fd5b61011861019a565b60408051918252519081900360200190f35b6101186101a7565b6101186101bb565b6101186101c7565b6101186101d9565b6101186101ed565b6101186101fa565b610118610206565b610118610213565b610118610218565b61011861021d565b610118610222565b610118610232565b61011861023e565b610118610243565b6802b5e3af16b188000081565b6402540be400670de0b6b3a76400005b0481565b670de0b6b3a764000081565b620f4240670de0b6b3a76400006101b7565b64e8d4a51000670de0b6b3a76400006101b7565b68056bc75e2d6310000081565b6704a03ce68d21555681565b6542524f4e5a4560d01b90565b600881565b600281565b600181565b600a670de0b6b3a76400006101b7565b671bc16d674ec7ffff81565b600081565b6002670de0b6b3a76400006101b756fea26469706673582212207c6e03653f3ab52014b1db1842e15d4bedc53b55657461b66fe600e7cf67e7ac64736f6c634300060c0033",
  "immutableReferences": {},
  "source": "// SPDX-License-Identifier: GPL-3.0-or-later\npragma solidity ^0.6.6;\n\nimport \"./BNum.sol\";\nimport \"../PCToken.sol\";\n\n// Highly opinionated token implementation\n\n/*\ninterface IERC20 {\n    event Approval(address indexed src, address indexed dst, uint amt);\n    event Transfer(address indexed src, address indexed dst, uint amt);\n\n    function totalSupply() external view returns (uint);\n    function balanceOf(address whom) external view returns (uint);\n    function allowance(address src, address dst) external view returns (uint);\n\n    function approve(address dst, uint amt) external returns (bool);\n    function transfer(address dst, uint amt) external returns (bool);\n    function transferFrom(\n        address src, address dst, uint amt\n    ) external returns (bool);\n}\n*/\n\n// Core contract; can't be changed. So disable solhint (reminder for v2)\n\n/* solhint-disable func-order */\n\ncontract BTokenBase is BNum {\n\n    mapping(address => uint)                   internal _balance;\n    mapping(address => mapping(address=>uint)) internal _allowance;\n    uint internal _totalSupply;\n\n    event Approval(address indexed src, address indexed dst, uint amt);\n    event Transfer(address indexed src, address indexed dst, uint amt);\n\n    function _mint(uint amt) internal {\n        _balance[address(this)] = badd(_balance[address(this)], amt);\n        _totalSupply = badd(_totalSupply, amt);\n        emit Transfer(address(0), address(this), amt);\n    }\n\n    function _burn(uint amt) internal {\n        require(_balance[address(this)] >= amt, \"ERR_INSUFFICIENT_BAL\");\n        _balance[address(this)] = bsub(_balance[address(this)], amt);\n        _totalSupply = bsub(_totalSupply, amt);\n        emit Transfer(address(this), address(0), amt);\n    }\n\n    function _move(address src, address dst, uint amt) internal {\n        require(_balance[src] >= amt, \"ERR_INSUFFICIENT_BAL\");\n        _balance[src] = bsub(_balance[src], amt);\n        _balance[dst] = badd(_balance[dst], amt);\n        emit Transfer(src, dst, amt);\n    }\n\n    function _push(address to, uint amt) internal {\n        _move(address(this), to, amt);\n    }\n\n    function _pull(address from, uint amt) internal {\n        _move(from, address(this), amt);\n    }\n}\n\ncontract BToken is BTokenBase, IERC20 {\n\n    string  private _name     = \"Balancer Pool Token\";\n    string  private _symbol   = \"BPT\";\n    uint8   private _decimals = 18;\n\n    function name() public view returns (string memory) {\n        return _name;\n    }\n\n    function symbol() public view returns (string memory) {\n        return _symbol;\n    }\n\n    function decimals() public view returns(uint8) {\n        return _decimals;\n    }\n\n    function allowance(address src, address dst) external view override returns (uint) {\n        return _allowance[src][dst];\n    }\n\n    function balanceOf(address whom) external view override returns (uint) {\n        return _balance[whom];\n    }\n\n    function totalSupply() public view override returns (uint) {\n        return _totalSupply;\n    }\n\n    function approve(address dst, uint amt) external override returns (bool) {\n        _allowance[msg.sender][dst] = amt;\n        emit Approval(msg.sender, dst, amt);\n        return true;\n    }\n\n    function increaseApproval(address dst, uint amt) external returns (bool) {\n        _allowance[msg.sender][dst] = badd(_allowance[msg.sender][dst], amt);\n        emit Approval(msg.sender, dst, _allowance[msg.sender][dst]);\n        return true;\n    }\n\n    function decreaseApproval(address dst, uint amt) external returns (bool) {\n        uint oldValue = _allowance[msg.sender][dst];\n        if (amt > oldValue) {\n            _allowance[msg.sender][dst] = 0;\n        } else {\n            _allowance[msg.sender][dst] = bsub(oldValue, amt);\n        }\n        emit Approval(msg.sender, dst, _allowance[msg.sender][dst]);\n        return true;\n    }\n\n    function transfer(address dst, uint amt) external override returns (bool) {\n        _move(msg.sender, dst, amt);\n        return true;\n    }\n\n    function transferFrom(address src, address dst, uint amt) external override returns (bool) {\n        require(msg.sender == src || amt <= _allowance[src][msg.sender], \"ERR_BTOKEN_BAD_CALLER\");\n        _move(src, dst, amt);\n        if (msg.sender != src && _allowance[src][msg.sender] != uint256(-1)) {\n            _allowance[src][msg.sender] = bsub(_allowance[src][msg.sender], amt);\n            emit Approval(msg.sender, dst, _allowance[src][msg.sender]);\n        }\n        return true;\n    }\n}\n",
  "sourcePath": "/home/thedavidmeister/configurable-rights-pool/contracts/test/BToken.sol",
  "compiler": {
    "name": "solc",
    "version": "0.6.12+commit.27d51765.Emscripten.clang"
  },
  "schemaVersion": "3.4.3",
  "updatedAt": "2021-08-28T06:05:41.207Z",
  "devdoc": {
    "kind": "dev",
    "methods": {},
    "version": 1
  },
  "userdoc": {
    "kind": "user",
    "methods": {},
    "version": 1
  }
}