{
  "contractName": "ESPFactory",
  "abi": [
    {
      "anonymous": false,
      "inputs": [
        {
          "indexed": true,
          "internalType": "address",
          "name": "caller",
          "type": "address"
        },
        {
          "indexed": true,
          "internalType": "address",
          "name": "pool",
          "type": "address"
        }
      ],
      "name": "LogNewEsp",
      "type": "event"
    },
    {
      "inputs": [
        {
          "internalType": "address",
          "name": "factoryAddress",
          "type": "address"
        },
        {
          "components": [
            {
              "internalType": "string",
              "name": "poolTokenSymbol",
              "type": "string"
            },
            {
              "internalType": "string",
              "name": "poolTokenName",
              "type": "string"
            },
            {
              "internalType": "address[]",
              "name": "constituentTokens",
              "type": "address[]"
            },
            {
              "internalType": "uint256[]",
              "name": "tokenBalances",
              "type": "uint256[]"
            },
            {
              "internalType": "uint256[]",
              "name": "tokenWeights",
              "type": "uint256[]"
            },
            {
              "internalType": "uint256",
              "name": "swapFee",
              "type": "uint256"
            }
          ],
          "internalType": "struct ConfigurableRightsPool.PoolParams",
          "name": "poolParams",
          "type": "tuple"
        },
        {
          "components": [
            {
              "internalType": "bool",
              "name": "canPauseSwapping",
              "type": "bool"
            },
            {
              "internalType": "bool",
              "name": "canChangeSwapFee",
              "type": "bool"
            },
            {
              "internalType": "bool",
              "name": "canChangeWeights",
              "type": "bool"
            },
            {
              "internalType": "bool",
              "name": "canAddRemoveTokens",
              "type": "bool"
            },
            {
              "internalType": "bool",
              "name": "canWhitelistLPs",
              "type": "bool"
            },
            {
              "internalType": "bool",
              "name": "canChangeCap",
              "type": "bool"
            }
          ],
          "internalType": "struct RightsManager.Rights",
          "name": "rights",
          "type": "tuple"
        }
      ],
      "name": "newEsp",
      "outputs": [
        {
          "internalType": "contract ElasticSupplyPool",
          "name": "",
          "type": "address"
        }
      ],
      "stateMutability": "nonpayable",
      "type": "function"
    },
    {
      "inputs": [
        {
          "internalType": "address",
          "name": "addr",
          "type": "address"
        }
      ],
      "name": "isEsp",
      "outputs": [
        {
          "internalType": "bool",
          "name": "",
          "type": "bool"
        }
      ],
      "stateMutability": "view",
      "type": "function"
    }
  ],
  "bytecode": "0x608060405234801561001057600080fd5b50615fc5806100206000396000f3fe60806040523480156200001157600080fd5b50600436106200003a5760003560e01c8063cd222a3c146200003f578063d723e9a8146200006e575b600080fd5b6200005662000050366004620002b4565b62000094565b604051620000659190620005b0565b60405180910390f35b620000856200007f366004620002d9565b620000b2565b60405162000065919062000481565b6001600160a01b031660009081526020819052604090205460ff1690565b60006002620000c5604085018562000655565b90501015620000f15760405162461bcd60e51b8152600401620000e89062000629565b60405180910390fd5b62000100604084018462000655565b905062000111606085018562000655565b905014620001335760405162461bcd60e51b8152600401620000e890620005f2565b62000142604084018462000655565b905062000153608085018562000655565b905014620001755760405162461bcd60e51b8152600401620000e890620005bb565b6000848484604051620001889062000270565b620001969392919062000495565b604051809103906000f080158015620001b3573d6000803e3d6000fd5b506040519091506001600160a01b0382169033907f392509ecc4ad5b92397a030038745a7bc8cddca4eb9f6e658895d3455a18b04b90600090a36001600160a01b03811660008181526020819052604090819020805460ff19166001179055516392eefe9b60e01b81526392eefe9b906200023390339060040162000481565b600060405180830381600087803b1580156200024e57600080fd5b505af115801562000263573d6000803e3d6000fd5b5092979650505050505050565b615835806200075b83390190565b80356001600160a01b03811681146200029657600080fd5b92915050565b600060c08284031215620002ae578081fd5b50919050565b600060208284031215620002c6578081fd5b620002d283836200027e565b9392505050565b60008060006101008486031215620002ef578182fd5b620002fb85856200027e565b9250602084013567ffffffffffffffff81111562000317578283fd5b62000325868287016200029c565b9250506200033785604086016200029c565b90509250925092565b60008284526020808501945082825b8581101562000381578183016001600160a01b036200036f82856200027e565b1688529683019691506001016200034f565b509495945050505050565b81835260006001600160fb1b03831115620003a5578081fd5b6020830280836020870137939093016020019283525090919050565b15159052565b60008284528282602086013780602084860101526020601f19601f85011685010190509392505050565b8035620003fe8162000748565b151582526020810135620004128162000748565b151560208301526040810135620004298162000748565b151560408301526060810135620004408162000748565b151560608301526080810135620004578162000748565b151560808301526200046d60a0820182620006f1565b6200047c60a0840182620003c1565b505050565b6001600160a01b0391909116815260200190565b6001600160a01b038416815261010060208201819052600090620004ba858062000700565b60c083860152620004d16101c086018284620003c7565b92505050620004e4602086018662000700565b60ff198086850301610120870152620004ff848385620003c7565b9350620005106040890189620006a6565b9350915080868503016101408701526200052c84848462000340565b93506200053d6060890189620006a6565b935091508086850301610160870152620005598484846200038c565b93506200056a6080890189620006a6565b93509150808685030161018087015250620005878383836200038c565b60a08801356101a08701529350620005a892505060408401905084620003f1565b949350505050565b901515815260200190565b6020808252601a908201527f4552525f53544152545f574549474854535f4d49534d41544348000000000000604082015260600190565b6020808252601b908201527f4552525f53544152545f42414c414e4345535f4d49534d415443480000000000604082015260600190565b6020808252601290820152714552525f544f4f5f4645575f544f4b454e5360701b604082015260600190565b6000808335601e198436030181126200066c578283fd5b83018035915067ffffffffffffffff82111562000687578283fd5b60209081019250810236038213156200069f57600080fd5b9250929050565b6000808335601e19843603018112620006bd578283fd5b830160208101925035905067ffffffffffffffff811115620006de57600080fd5b6020810236038313156200069f57600080fd5b60008235620002d28162000748565b6000808335601e1984360301811262000717578283fd5b830160208101925035905067ffffffffffffffff8111156200073857600080fd5b8036038313156200069f57600080fd5b80151581146200075757600080fd5b5056fe60806040523480156200001157600080fd5b5060405162005835380380620058358339810160408190526200003491620006f6565b8282828160000151826020015181600390805190602001906200005992919062000366565b5080516200006f90600490602084019062000366565b5050600580546001600160a01b03191633179055506001600655620f4240670de0b6b3a7640000048260a001511015620000c65760405162461bcd60e51b8152600401620000bd9062000955565b60405180910390fd5b60a082015167016345785d8a00001015620000f55760405162461bcd60e51b8152600401620000bd9062000955565b81604001515182606001515114620001215760405162461bcd60e51b8152600401620000bd90620008f2565b816040015151826080015151146200014d5760405162461bcd60e51b8152600401620000bd9062000884565b60028260400151511015620001765760405162461bcd60e51b8152600401620000bd9062000929565b600882604001515111156200019f5760405162461bcd60e51b8152600401620000bd906200098c565b60408083015190516377d4434960e01b815273__SmartPoolManager______________________916377d4434991620001dc919060040162000835565b60006040518083038186803b158015620001f557600080fd5b505af41580156200020a573d6000803e3d6000fd5b5050600780546001600160a01b0319166001600160a01b03871617905550508051600980546020808501516040808701516060880151608089015160a08a015160ff199097169815159890981761ff001916610100941515949094029390931762ff0000191662010000911515919091021763ff00000019166301000000921515929092029190911760ff60201b1916640100000000951515959095029490941760ff60281b1916650100000000009215159290920291909117909155908301518051620002dd926013920190620003eb565b5060608201518051620002f99160149160209091019062000451565b5060a082015160125562015f906015556101f4601655608082015180516200032a91600c9160209091019062000451565b50506000600a55505060001960185560408101516200035d5760405162461bcd60e51b8152600401620000bd90620008bb565b50505062000a1c565b828054600181600116156101000203166002900490600052602060002090601f016020900481019282601f10620003a957805160ff1916838001178555620003d9565b82800160010185558215620003d9579182015b82811115620003d9578251825591602001919060010190620003bc565b50620003e79291506200048e565b5090565b82805482825590600052602060002090810192821562000443579160200282015b828111156200044357825182546001600160a01b0319166001600160a01b039091161782556020909201916001909101906200040c565b50620003e7929150620004a5565b828054828255906000526020600020908101928215620003d95791602002820182811115620003d9578251825591602001919060010190620003bc565b5b80821115620003e757600081556001016200048f565b5b80821115620003e75780546001600160a01b0319168155600101620004a6565b80516001600160a01b0381168114620004de57600080fd5b92915050565b600082601f830112620004f5578081fd5b81516200050c6200050682620009ea565b620009c3565b8181529150602080830190848101818402860182018710156200052e57600080fd5b60005b848110156200055957620005468883620004c6565b8452928201929082019060010162000531565b505050505092915050565b600082601f83011262000575578081fd5b8151620005866200050682620009ea565b818152915060208083019084810181840286018201871015620005a857600080fd5b60005b848110156200055957815184529282019290820190600101620005ab565b600082601f830112620005da578081fd5b81516001600160401b03811115620005f0578182fd5b602062000606601f8301601f19168201620009c3565b925081835284818386010111156200061d57600080fd5b60005b828110156200063d57848101820151848201830152810162000620565b828111156200064f5760008284860101525b50505092915050565b600060c082840312156200066a578081fd5b6200067660c0620009c3565b90508151620006858162000a0a565b81526020820151620006978162000a0a565b60208201526040820151620006ac8162000a0a565b60408201526060820151620006c18162000a0a565b60608201526080820151620006d68162000a0a565b608082015260a0820151620006eb8162000a0a565b60a082015292915050565b600080600061010084860312156200070c578283fd5b620007188585620004c6565b60208501519093506001600160401b038082111562000735578384fd5b9085019060c0828803121562000749578384fd5b6200075560c0620009c3565b82518281111562000764578586fd5b6200077289828601620005c9565b82525060208301518281111562000787578586fd5b6200079589828601620005c9565b602083015250604083015182811115620007ad578586fd5b620007bb89828601620004e4565b604083015250606083015182811115620007d3578586fd5b620007e18982860162000564565b606083015250608083015182811115620007f9578586fd5b620008078982860162000564565b60808301525060a083015160a08201528094505050506200082c856040860162000658565b90509250925092565b6020808252825182820181905260009190848201906040850190845b81811015620008785783516001600160a01b03168352928401929184019160010162000851565b50909695505050505050565b6020808252601a908201527f4552525f53544152545f574549474854535f4d49534d41544348000000000000604082015260600190565b6020808252601c908201527f4552525f4e4f545f434f4e464947555241424c455f5745494748545300000000604082015260600190565b6020808252601b908201527f4552525f53544152545f42414c414e4345535f4d49534d415443480000000000604082015260600190565b6020808252601290820152714552525f544f4f5f4645575f544f4b454e5360701b604082015260600190565b60208082526014908201527f4552525f494e56414c49445f535741505f464545000000000000000000000000604082015260600190565b60208082526013908201527f4552525f544f4f5f4d414e595f544f4b454e5300000000000000000000000000604082015260600190565b6040518181016001600160401b0381118282101715620009e257600080fd5b604052919050565b60006001600160401b0382111562000a00578081fd5b5060209081020190565b801515811462000a1957600080fd5b50565b614e098062000a2c6000396000f3fe608060405234801561001057600080fd5b50600436106103785760003560e01c806370a08231116101d3578063b02f0b7311610104578063dd62ed3e116100a2578063e7f1a5541161007c578063e7f1a55414610700578063e854f53d14610708578063f226b52814610710578063fde924f71461071857610378565b8063dd62ed3e146106d2578063e211b875146106e5578063e2762d4b146106ed57610378565b8063c3391d27116100de578063c3391d2714610680578063c42bd05a14610693578063c83a1c2d146106ac578063d73dd623146106bf57610378565b8063b02f0b731461065d578063b64ef17b14610670578063c275d81b1461067857610378565b80639776e94b116101715780639d829c2b1161014b5780639d829c2b14610632578063a3f4df7e1461063a578063a835a0de14610642578063a9059cbb1461064a57610378565b80639776e94b14610602578063980e8db6146106105780639a82417e1461062a57610378565b80638259e6a0116101ad5780638259e6a0146105c157806392eefe9b146105d4578063948d8ce6146105e757806395d89b41146105fa57610378565b806370a082311461059357806374983a0d146105a6578063806c6f87146105ae57610378565b806334e19907116102ad5780634f69c0d41161024b5780635db34277116102255780635db34277146105475780635fa7b5841461055a578063661884631461056d5780636d06dfa01461058057610378565b80634f69c0d41461050b57806355c32a231461051e5780635a8342d81461053157610378565b806347786d371161028757806347786d37146104bf57806349b59552146104d25780634ba57882146104e55780634c20d209146104f857610378565b806334e199071461048657806337c6f4d91461049957806346ab38f1146104ac57610378565b806318160ddd1161031a578063246bc19b116102f4578063246bc19b1461044e5780632e0f2625146104615780633018205f14610476578063313ce5671461047e57610378565b806318160ddd14610420578063220eb7601461042857806323b872dd1461043b57610378565b8063095ea7b311610356578063095ea7b3146103d05780630a165940146103f05780630ce27925146104055780630f93ab471461040d57610378565b806302c967481461037d57806306fdde03146103a6578063095dcccc146103bb575b600080fd5b61039061038b36600461420b565b610720565b60405161039d9190614d19565b60405180910390f35b6103ae6108e7565b60405161039d9190614722565b6103ce6103c93660046141e0565b61097d565b005b6103e36103de3660046141e0565b6109aa565b60405161039d91906145ab565b6103f8610a03565b60405161039d91906144f1565b610390610a12565b6103ce61041b36600461414c565b610a18565b6103906110a8565b6103ce6104363660046143d5565b6110ae565b6103e36104493660046141a0565b6110d9565b6103ce61045c3660046142d8565b611207565b6104696112ab565b60405161039d9190614d30565b6103f86112b0565b6104696112bf565b6103ce6104943660046143d5565b6112c4565b6103e36104a73660046143b6565b611409565b6103906104ba36600461420b565b61149e565b6103ce6104cd3660046143d5565b61164c565b6103ce6104e0366004614362565b61177a565b6103ce6104f33660046143d5565b611880565b6103ce61050636600461420b565b6118a8565b6103ce610519366004614405565b611ac9565b6103ce61052c3660046141e0565b611eca565b610539611ef3565b60405161039d929190614d22565b61039061055536600461420b565b611efc565b6103ce61056836600461414c565b6120c1565b6103e361057b3660046141e0565b61225c565b61039061058e36600461420b565b612336565b6103906105a136600461414c565b6124fb565b6103f8612516565b6103e36105bc36600461414c565b61252e565b6103ce6105cf3660046143d5565b612577565b6103ce6105e236600461414c565b61260c565b6103906105f536600461414c565b6126b8565b6103ae612785565b6103ce61045c3660046141e0565b6106186127e6565b60405161039d969594939291906145b6565b6103f8612821565b6103f8612839565b6103ae612851565b610390612880565b6103e36106583660046141e0565b612886565b6103ce61066b366004614405565b6128c2565b6103f8612c56565b6103ce612c65565b6103ce61068e3660046144c0565b611293565b61069b612dc4565b60405161039d959493929190614543565b6103ce6106ba36600461414c565b612deb565b6103e36106cd3660046141e0565b612ede565b6103906106e0366004614168565b612f52565b6103ce612f7d565b6103ce6106fb36600461414c565b612fdf565b610390613106565b61039061310c565b610390613112565b6103e3613119565b60405160009033906001600160e01b03198335169061074290849036906145e6565b60405180910390a2600260065414156107765760405162461bcd60e51b815260040161076d906149a3565b60405180910390fd5b60026006556008546001600160a01b03166107a35760405162461bcd60e51b815260040161076d906148fb565b60085460405163724a2d5360e01b8152600091829173__SmartPoolManager______________________9163724a2d53916107f49130916001600160a01b03909116908b908b908b90600401614669565b604080518083038186803b15801561080b57600080fd5b505af415801561081f573d6000803e3d6000fd5b505050506040513d601f19601f82011682018060405250810190610843919061444f565b91509150809250600061085684846131f1565b9050866001600160a01b0316336001600160a01b03167fc62fc35ac75e3bff532648e2859a3e1694002cfa357614ae8e034df7f83db5e98860405161089b9190614d19565b60405180910390a36108ad3385611ee9565b6108b6816110cd565b6007546108cc906001600160a01b03168461099c565b6108d787338861322a565b5050505b60016006559392505050565b60048054604080516020601f60026000196101006001881615020190951694909404938401819004810282018101909252828152606093909290918301828280156109735780601f1061094857610100808354040283529160200191610973565b820191906000526020600020905b81548152906001019060200180831161095657829003601f168201915b5050505050905090565b33301461099c5760405162461bcd60e51b815260040161076d90614775565b6109a68282613473565b5050565b3360008181526002602090815260408083206001600160a01b03871680855292528083208590555191929091600080516020614db4833981519152906109f1908690614d19565b60405180910390a35060015b92915050565b6007546001600160a01b031681565b60185481565b336001600160a01b03166000356001600160e01b0319166001600160e01b031916600036604051610a4a9291906145e6565b60405180910390a260026006541415610a755760405162461bcd60e51b815260040161076d906149a3565b60026006556008546001600160a01b0316610aa25760405162461bcd60e51b815260040161076d906148fb565b600a5415610ac25760405162461bcd60e51b815260040161076d90614c6d565b600854604051630bcded8960e21b81526001600160a01b0390911690632f37b62490610af29084906004016144f1565b60206040518083038186803b158015610b0a57600080fd5b505afa158015610b1e573d6000803e3d6000fd5b505050506040513d601f19601f82011682018060405250810190610b42919061437e565b610b5e5760405162461bcd60e51b815260040161076d906149c8565b60085460405163f8b2cb4f60e01b81526000916001600160a01b03169063f8b2cb4f90610b8f9085906004016144f1565b60206040518083038186803b158015610ba757600080fd5b505afa158015610bbb573d6000803e3d6000fd5b505050506040513d601f19601f82011682018060405250810190610bdf91906143ed565b600854604051631185197d60e31b81529192506001600160a01b031690638c28cbe890610c109085906004016144f1565b600060405180830381600087803b158015610c2a57600080fd5b505af1158015610c3e573d6000803e3d6000fd5b505060085460405163f8b2cb4f60e01b8152600093506001600160a01b03909116915063f8b2cb4f90610c759086906004016144f1565b60206040518083038186803b158015610c8d57600080fd5b505afa158015610ca1573d6000803e3d6000fd5b505050506040513d601f19601f82011682018060405250810190610cc591906143ed565b905080821415610cd65750506110a0565b600854604051634a46c67360e11b81526000916001600160a01b03169063948d8ce690610d079087906004016144f1565b60206040518083038186803b158015610d1f57600080fd5b505afa158015610d33573d6000803e3d6000fd5b505050506040513d601f19601f82011682018060405250810190610d5791906143ed565b90506000610d6e610d68838561347e565b856134fb565b90506000610d8e610d89610d82858561347e565b60016134fb565b61358c565b90506060600860009054906101000a90046001600160a01b03166001600160a01b031663cc77828d6040518163ffffffff1660e01b815260040160006040518083038186803b158015610de057600080fd5b505afa158015610df4573d6000803e3d6000fd5b505050506040513d6000823e601f3d908101601f19168201604052610e1c919081019061423f565b905060005b815181101561109857876001600160a01b0316828281518110610e4057fe5b60200260200101516001600160a01b03161415610ec257600854604051631feeed5160e11b81526001600160a01b0390911690633fdddaa290610e8b908b908a90889060040161458a565b600060405180830381600087803b158015610ea557600080fd5b505af1158015610eb9573d6000803e3d6000fd5b50505050611090565b60085482516000916001600160a01b03169063948d8ce690859085908110610ee657fe5b60200260200101516040518263ffffffff1660e01b8152600401610f0a91906144f1565b60206040518083038186803b158015610f2257600080fd5b505afa158015610f36573d6000803e3d6000fd5b505050506040513d601f19601f82011682018060405250810190610f5a91906143ed565b60085484519192506000916001600160a01b039091169063f8b2cb4f90869086908110610f8357fe5b60200260200101516040518263ffffffff1660e01b8152600401610fa791906144f1565b60206040518083038186803b158015610fbf57600080fd5b505afa158015610fd3573d6000803e3d6000fd5b505050506040513d601f19601f82011682018060405250810190610ff791906143ed565b9050600061100e611008878561347e565b886134fb565b60085486519192506001600160a01b031690633fdddaa29087908790811061103257fe5b602002602001015184846040518463ffffffff1660e01b815260040161105a9392919061458a565b600060405180830381600087803b15801561107457600080fd5b505af1158015611088573d6000803e3d6000fd5b505050505050505b600101610e21565b505050505050505b506001600655565b60005490565b3330146110cd5760405162461bcd60e51b815260040161076d90614775565b6110d6816135dd565b50565b60006001600160a01b0383166111015760405162461bcd60e51b815260040161076d9061486a565b336001600160a01b038516148061113b57506001600160a01b03841660009081526002602090815260408083203384529091529020548211155b6111575760405162461bcd60e51b815260040161076d90614b22565b611162848484613657565b6001600160a01b038416600081815260026020908152604080832033808552925290912054911480159061119857506000198114155b156111fa576111a781846131f1565b6001600160a01b038681166000908152600260209081526040808320338085529252918290208490559051918716929091600080516020614db4833981519152916111f191614d19565b60405180910390a35b60019150505b9392505050565b336001600160a01b03166000356001600160e01b0319166001600160e01b0319166000366040516112399291906145e6565b60405180910390a26005546001600160a01b0316331461126b5760405162461bcd60e51b815260040161076d90614775565b6008546001600160a01b03166112935760405162461bcd60e51b815260040161076d906148fb565b60405162461bcd60e51b815260040161076d906147d8565b601281565b6005546001600160a01b031690565b601290565b336001600160a01b03166000356001600160e01b0319166001600160e01b0319166000366040516112f69291906145e6565b60405180910390a2600260065414156113215760405162461bcd60e51b815260040161076d906149a3565b60026006556005546001600160a01b031633146113505760405162461bcd60e51b815260040161076d90614775565b6008546001600160a01b03166113785760405162461bcd60e51b815260040161076d906148fb565b600954610100900460ff1661139f5760405162461bcd60e51b815260040161076d90614c36565b6008546040516334e1990760e01b81526001600160a01b03909116906334e19907906113cf908490600401614d19565b600060405180830381600087803b1580156113e957600080fd5b505af11580156113fd573d6000803e3d6000fd5b50506001600655505050565b6040516322c1aa2560e11b815260009073__RightsManager_________________________90634583544a90611446906009908690600401614ca4565b60206040518083038186803b15801561145e57600080fd5b505af4158015611472573d6000803e3d6000fd5b505050506040513d601f19601f82011682018060405250810190611496919061437e565b90505b919050565b60405160009033906001600160e01b0319833516906114c090849036906145e6565b60405180910390a2600260065414156114eb5760405162461bcd60e51b815260040161076d906149a3565b60026006556008546001600160a01b03166115185760405162461bcd60e51b815260040161076d906148fb565b600854604051636a82d4a760e11b8152600091829173__SmartPoolManager______________________9163d505a94e916115699130916001600160a01b03909116908b908b908b90600401614669565b604080518083038186803b15801561158057600080fd5b505af4158015611594573d6000803e3d6000fd5b505050506040513d601f19601f820116820180604052508101906115b8919061444f565b9150915080925060006115cb86846131f1565b9050866001600160a01b0316336001600160a01b03167fc62fc35ac75e3bff532648e2859a3e1694002cfa357614ae8e034df7f83db5e9866040516116109190614d19565b60405180910390a36116223387611ee9565b61162b816110cd565b600754611641906001600160a01b03168461099c565b6108d787338661322a565b336001600160a01b03166000356001600160e01b0319166001600160e01b03191660003660405161167e9291906145e6565b60405180910390a2600260065414156116a95760405162461bcd60e51b815260040161076d906149a3565b60026006556008546001600160a01b03166116d65760405162461bcd60e51b815260040161076d906148fb565b6005546001600160a01b031633146117005760405162461bcd60e51b815260040161076d90614775565b60095465010000000000900460ff1661172b5760405162461bcd60e51b815260040161076d90614a70565b336001600160a01b03167f6bc200110c7794738d401810b22ef824a2044a8ccb022d4ad8769840370331f560185483604051611768929190614d22565b60405180910390a26018556001600655565b336001600160a01b03166000356001600160e01b0319166001600160e01b0319166000366040516117ac9291906145e6565b60405180910390a2600260065414156117d75760405162461bcd60e51b815260040161076d906149a3565b60026006556005546001600160a01b031633146118065760405162461bcd60e51b815260040161076d90614775565b6008546001600160a01b031661182e5760405162461bcd60e51b815260040161076d906148fb565b60095460ff166118505760405162461bcd60e51b815260040161076d90614bb2565b6008546040516324dacaa960e11b81526001600160a01b03909116906349b59552906113cf9084906004016145ab565b33301461189f5760405162461bcd60e51b815260040161076d90614775565b6110d681613708565b336001600160a01b03166000356001600160e01b0319166001600160e01b0319166000366040516118da9291906145e6565b60405180910390a2600260065414156119055760405162461bcd60e51b815260040161076d906149a3565b60026006556005546001600160a01b031633146119345760405162461bcd60e51b815260040161076d90614775565b6008546001600160a01b031661195c5760405162461bcd60e51b815260040161076d906148fb565b6009546301000000900460ff166119855760405162461bcd60e51b815260040161076d906147a1565b600a54156119a55760405162461bcd60e51b815260040161076d90614c6d565b604051630e0d789b60e11b815273__SmartPoolManager______________________90631c1af136906119dc9086906004016144f1565b60006040518083038186803b1580156119f457600080fd5b505af4158015611a08573d6000803e3d6000fd5b50506040513392503091506001600160a01b038616907f33b043686b9408a355896fe90b2f8ecc86a41d87d1554ef65a739948b4f23e2790600090a460085460405163b489ec1960e01b815273__SmartPoolManager______________________9163b489ec1991611a8f916001600160a01b031690879087908790600e90600401614615565b60006040518083038186803b158015611aa757600080fd5b505af4158015611abb573d6000803e3d6000fd5b505060016006555050505050565b336001600160a01b03166000356001600160e01b0319166001600160e01b031916600036604051611afb9291906145e6565b60405180910390a260026006541415611b265760405162461bcd60e51b815260040161076d906149a3565b60026006556008546001600160a01b0316611b535760405162461bcd60e51b815260040161076d906148fb565b6008546040805163fde924f760e01b815290516000926001600160a01b03169163fde924f7916004808301926020929190829003018186803b158015611b9857600080fd5b505afa158015611bac573d6000803e3d6000fd5b505050506040513d601f19601f82011682018060405250810190611bd0919061437e565b6008546040516324dacaa960e11b81529192506001600160a01b0316906349b5955290611c02906000906004016145ab565b600060405180830381600087803b158015611c1c57600080fd5b505af1158015611c30573d6000803e3d6000fd5b5050600954600160201b900460ff16159150819050611c5e57503360009081526017602052604090205460ff165b611c7a5760405162461bcd60e51b815260040161076d9061480f565b60085460405163a1925f1d60e01b815260609173__SmartPoolManager______________________9163a1925f1d91611cc79130916001600160a01b0316908a908a908a9060040161469d565b60006040518083038186803b158015611cdf57600080fd5b505af4158015611cf3573d6000803e3d6000fd5b505050506040513d6000823e601f3d908101601f19168201604052611d1b9190810190614327565b90506060600860009054906101000a90046001600160a01b03166001600160a01b031663cc77828d6040518163ffffffff1660e01b815260040160006040518083038186803b158015611d6d57600080fd5b505afa158015611d81573d6000803e3d6000fd5b505050506040513d6000823e601f3d908101601f19168201604052611da9919081019061423f565b905060005b8151811015611e47576000828281518110611dc557fe5b602002602001015190506000848381518110611ddd57fe5b60200260200101519050816001600160a01b0316336001600160a01b03167fea39e3b35c5cd8937999ed5f7fbab30acd562a931fc4a887fed2a47c3074aa7283604051611e2a9190614d19565b60405180910390a3611e3d823383613735565b5050600101611dae565b50611e518661189f565b611e5b338761099c565b50506008546040516324dacaa960e11b81526001600160a01b03909116906349b5955290611e8d9084906004016145ab565b600060405180830381600087803b158015611ea757600080fd5b505af1158015611ebb573d6000803e3d6000fd5b50506001600655505050505050565b333014611ee95760405162461bcd60e51b815260040161076d90614775565b6109a6828261397e565b600a54600b5482565b60405160009033906001600160e01b031983351690611f1e90849036906145e6565b60405180910390a260026006541415611f495760405162461bcd60e51b815260040161076d906149a3565b60026006556008546001600160a01b0316611f765760405162461bcd60e51b815260040161076d906148fb565b600954600160201b900460ff161580611f9e57503360009081526017602052604090205460ff165b611fba5760405162461bcd60e51b815260040161076d9061480f565b60085460405163df90de0b60e01b815273__SmartPoolManager______________________9163df90de0b916120069130916001600160a01b0390911690899089908990600401614669565b60206040518083038186803b15801561201e57600080fd5b505af4158015612032573d6000803e3d6000fd5b505050506040513d601f19601f8201168201806040525081019061205691906143ed565b9050836001600160a01b0316336001600160a01b03167fea39e3b35c5cd8937999ed5f7fbab30acd562a931fc4a887fed2a47c3074aa728560405161209b9190614d19565b60405180910390a36120ac8161189f565b6120b6338261099c565b6108db843385613735565b336001600160a01b03166000356001600160e01b0319166001600160e01b0319166000366040516120f39291906145e6565b60405180910390a26002600654141561211e5760405162461bcd60e51b815260040161076d906149a3565b60026006556005546001600160a01b0316331461214d5760405162461bcd60e51b815260040161076d90614775565b6008546001600160a01b03166121755760405162461bcd60e51b815260040161076d906148fb565b6009546301000000900460ff1661219e5760405162461bcd60e51b815260040161076d906147a1565b600e54600160a01b900460ff16156121c85760405162461bcd60e51b815260040161076d90614b52565b600a54156121e85760405162461bcd60e51b815260040161076d90614c6d565b600854604051630970e47f60e01b815273__SmartPoolManager______________________91630970e47f916122309130916001600160a01b03909116908690600401614646565b60006040518083038186803b15801561224857600080fd5b505af41580156113fd573d6000803e3d6000fd5b3360009081526002602090815260408083206001600160a01b03861684529091528120548083106122b0573360009081526002602090815260408083206001600160a01b03881684529091528120556122df565b6122ba81846131f1565b3360009081526002602090815260408083206001600160a01b03891684529091529020555b3360008181526002602090815260408083206001600160a01b038916808552925291829020549151909291600080516020614db4833981519152916123249190614d19565b60405180910390a35060019392505050565b60405160009033906001600160e01b03198335169061235890849036906145e6565b60405180910390a2600260065414156123835760405162461bcd60e51b815260040161076d906149a3565b60026006556008546001600160a01b03166123b05760405162461bcd60e51b815260040161076d906148fb565b600954600160201b900460ff1615806123d857503360009081526017602052604090205460ff165b6123f45760405162461bcd60e51b815260040161076d9061480f565b600854604051636a6dc6e760e01b815273__SmartPoolManager______________________91636a6dc6e7916124409130916001600160a01b0390911690899089908990600401614669565b60206040518083038186803b15801561245857600080fd5b505af415801561246c573d6000803e3d6000fd5b505050506040513d601f19601f8201168201806040525081019061249091906143ed565b9050836001600160a01b0316336001600160a01b03167fea39e3b35c5cd8937999ed5f7fbab30acd562a931fc4a887fed2a47c3074aa72836040516124d59190614d19565b60405180910390a36124e68361189f565b6124f0338461099c565b6108db843383613735565b6001600160a01b031660009081526001602052604090205490565b73__RightsManager_________________________90565b600954600090600160201b900460ff161561256557506001600160a01b03811660009081526017602052604090205460ff16611499565b506001600160a01b0381161515611499565b6005546001600160a01b031633146125a15760405162461bcd60e51b815260040161076d90614775565b336001600160a01b03166000356001600160e01b0319166001600160e01b0319166000366040516125d39291906145e6565b60405180910390a2600260065414156125fe5760405162461bcd60e51b815260040161076d906149a3565b60026006556110a081613989565b6005546001600160a01b031633146126365760405162461bcd60e51b815260040161076d90614775565b6001600160a01b03811661265c5760405162461bcd60e51b815260040161076d9061486a565b6005546040516001600160a01b038084169216907f8be0079c531659141344cd1fd0a4f28419497f9722a3daafe3b4186f6b6457e090600090a3600580546001600160a01b0319166001600160a01b0392909216919091179055565b6000600260065414156126dd5760405162461bcd60e51b815260040161076d906149ef565b6008546001600160a01b03166127055760405162461bcd60e51b815260040161076d906148fb565b600854604051634a46c67360e11b81526001600160a01b039091169063948d8ce6906127359085906004016144f1565b60206040518083038186803b15801561274d57600080fd5b505afa158015612761573d6000803e3d6000fd5b505050506040513d601f19601f8201168201806040525081019061149691906143ed565b60038054604080516020601f60026000196101006001881615020190951694909404938401819004810282018101909252828152606093909290918301828280156109735780601f1061094857610100808354040283529160200191610973565b60095460ff80821691610100810482169162010000820481169163010000008104821691600160201b82048116916501000000000090041686565b73__BalancerSafeMath______________________90565b73__SmartPoolManager______________________90565b6040518060400160405280601381526020017210985b185b98d95c8814db585c9d08141bdbdb606a1b81525081565b6101f481565b60006001600160a01b0383166128ae5760405162461bcd60e51b815260040161076d9061486a565b6128b9338484613657565b50600192915050565b336001600160a01b03166000356001600160e01b0319166001600160e01b0319166000366040516128f49291906145e6565b60405180910390a26002600654141561291f5760405162461bcd60e51b815260040161076d906149a3565b60026006556008546001600160a01b031661294c5760405162461bcd60e51b815260040161076d906148fb565b6008546040805163fde924f760e01b815290516000926001600160a01b03169163fde924f7916004808301926020929190829003018186803b15801561299157600080fd5b505afa1580156129a5573d6000803e3d6000fd5b505050506040513d601f19601f820116820180604052508101906129c9919061437e565b6008546040516324dacaa960e11b81529192506001600160a01b0316906349b59552906129fb906000906004016145ab565b600060405180830381600087803b158015612a1557600080fd5b505af1158015612a29573d6000803e3d6000fd5b505060085460405163151c70f960e21b81526000935083925060609173__SmartPoolManager______________________91635471c3e491612a7f9130916001600160a01b0316908c908c908c9060040161469d565b60006040518083038186803b158015612a9757600080fd5b505af4158015612aab573d6000803e3d6000fd5b505050506040513d6000823e601f3d908101601f19168201604052612ad39190810190614472565b925092509250612ae33388611ee9565b600754612af9906001600160a01b03168461099c565b612b02826110cd565b6008546040805163cc77828d60e01b815290516060926001600160a01b03169163cc77828d916004808301926000929190829003018186803b158015612b4757600080fd5b505afa158015612b5b573d6000803e3d6000fd5b505050506040513d6000823e601f3d908101601f19168201604052612b83919081019061423f565b905060005b8151811015612c21576000828281518110612b9f57fe5b602002602001015190506000848381518110612bb757fe5b60200260200101519050816001600160a01b0316336001600160a01b03167fc62fc35ac75e3bff532648e2859a3e1694002cfa357614ae8e034df7f83db5e983604051612c049190614d19565b60405180910390a3612c1782338361322a565b5050600101612b88565b50506008546040516324dacaa960e11b81526001600160a01b0390911693506349b595529250611e8d915084906004016145ab565b6008546001600160a01b031681565b336001600160a01b03166000356001600160e01b0319166001600160e01b031916600036604051612c979291906145e6565b60405180910390a260026006541415612cc25760405162461bcd60e51b815260040161076d906149a3565b60026006556005546001600160a01b03163314612cf15760405162461bcd60e51b815260040161076d90614775565b6008546001600160a01b0316612d195760405162461bcd60e51b815260040161076d906148fb565b6009546301000000900460ff16612d425760405162461bcd60e51b815260040161076d906147a1565b600854601654604051633be961dd60e21b815273__SmartPoolManager______________________9263efa5877492612d8d9230926001600160a01b03169190600e906004016146f9565b60006040518083038186803b158015612da557600080fd5b505af4158015612db9573d6000803e3d6000fd5b505060016006555050565b600e54600f546010546011546001600160a01b03841693600160a01b900460ff1692919085565b6005546001600160a01b03163314612e155760405162461bcd60e51b815260040161076d90614775565b60026006541415612e385760405162461bcd60e51b815260040161076d906149a3565b60026006556040513390600080356001600160e01b03191691612e5d919036906145e6565b60405180910390a2600954600160201b900460ff16612e8e5760405162461bcd60e51b815260040161076d90614894565b6001600160a01b038116612eb45760405162461bcd60e51b815260040161076d90614a19565b6001600160a01b03166000908152601760205260409020805460ff19166001908117909155600655565b3360009081526002602090815260408083206001600160a01b0386168452909152812054612f0c9083613e35565b3360008181526002602090815260408083206001600160a01b03891680855292529182902084905590519092600080516020614db4833981519152916109f19190614d19565b6001600160a01b03918216600090815260026020908152604080832093909416825291909152205490565b336001600160a01b03166000356001600160e01b0319166001600160e01b031916600036604051612faf9291906145e6565b60405180910390a26008546001600160a01b03166112935760405162461bcd60e51b815260040161076d906148fb565b6005546001600160a01b031633146130095760405162461bcd60e51b815260040161076d90614775565b6002600654141561302c5760405162461bcd60e51b815260040161076d906149a3565b60026006556040513390600080356001600160e01b03191691613051919036906145e6565b60405180910390a2600954600160201b900460ff166130825760405162461bcd60e51b815260040161076d90614894565b6001600160a01b03811660009081526017602052604090205460ff166130ba5760405162461bcd60e51b815260040161076d906148cb565b6001600160a01b0381166130e05760405162461bcd60e51b815260040161076d90614a19565b6001600160a01b03166000908152601760205260409020805460ff191690556001600655565b60165481565b60155481565b62015f9081565b60006002600654141561313e5760405162461bcd60e51b815260040161076d906149ef565b6008546001600160a01b03166131665760405162461bcd60e51b815260040161076d906148fb565b600860009054906101000a90046001600160a01b03166001600160a01b031663fde924f76040518163ffffffff1660e01b815260040160206040518083038186803b1580156131b457600080fd5b505afa1580156131c8573d6000803e3d6000fd5b505050506040513d601f19601f820116820180604052508101906131ec919061437e565b905090565b60008060006132008585613e5a565b9150915080156132225760405162461bcd60e51b815260040161076d90614be1565b509392505050565b6008546001600160a01b03166132525760405162461bcd60e51b815260040161076d906148fb565b60085460405163f8b2cb4f60e01b81526000916001600160a01b03169063f8b2cb4f906132839087906004016144f1565b60206040518083038186803b15801561329b57600080fd5b505afa1580156132af573d6000803e3d6000fd5b505050506040513d601f19601f820116820180604052508101906132d391906143ed565b600854604051634a46c67360e11b81529192506000916001600160a01b039091169063948d8ce6906133099088906004016144f1565b60206040518083038186803b15801561332157600080fd5b505afa158015613335573d6000803e3d6000fd5b505050506040513d601f19601f8201168201806040525081019061335991906143ed565b6008549091506001600160a01b0316633fdddaa28661337885876131f1565b846040518463ffffffff1660e01b81526004016133979392919061458a565b600060405180830381600087803b1580156133b157600080fd5b505af11580156133c5573d6000803e3d6000fd5b505060405163a9059cbb60e01b8152600092506001600160a01b038816915063a9059cbb906133fa9088908890600401614571565b602060405180830381600087803b15801561341457600080fd5b505af1158015613428573d6000803e3d6000fd5b505050506040513d601f19601f8201168201806040525081019061344c919061437e565b90508061346b5760405162461bcd60e51b815260040161076d90614b89565b505050505050565b6109a6308383613657565b60008261348d575060006109fd565b8282028284828161349a57fe5b04146134b85760405162461bcd60e51b815260040161076d90614a46565b6706f05b59d3b200008101818110156134e35760405162461bcd60e51b815260040161076d90614a46565b6000670de0b6b3a7640000825b049695505050505050565b60008161351a5760405162461bcd60e51b815260040161076d90614a9f565b82613527575060006109fd565b670de0b6b3a76400008381029084828161353d57fe5b041461355b5760405162461bcd60e51b815260040161076d90614979565b600283048101818110156135815760405162461bcd60e51b815260040161076d90614979565b60008482816134f057fe5b600060038211156135cf575080600160028204015b818110156135c9578091506002818285816135b857fe5b0401816135c157fe5b0490506135a1565b50611499565b811561149957506001919050565b306000908152600160205260409020546135f790826131f1565b306000908152600160205260408120919091555461361590826131f1565b600090815560405130907fddf252ad1be2c89b69c2b068fc378daa952ba7f163c4a11628f55a4df523b3ef9061364c908590614d19565b60405180910390a350565b6001600160a01b03831660009081526001602052604090205461367a90826131f1565b6001600160a01b0380851660009081526001602052604080822093909355908416815220546136a99082613e35565b6001600160a01b0380841660008181526001602052604090819020939093559151908516907fddf252ad1be2c89b69c2b068fc378daa952ba7f163c4a11628f55a4df523b3ef906136fb908590614d19565b60405180910390a3505050565b61371181613e7f565b60185460005411156110d65760405162461bcd60e51b815260040161076d90614af3565b6008546001600160a01b031661375d5760405162461bcd60e51b815260040161076d906148fb565b60085460405163f8b2cb4f60e01b81526000916001600160a01b03169063f8b2cb4f9061378e9087906004016144f1565b60206040518083038186803b1580156137a657600080fd5b505afa1580156137ba573d6000803e3d6000fd5b505050506040513d601f19601f820116820180604052508101906137de91906143ed565b600854604051634a46c67360e11b81529192506000916001600160a01b039091169063948d8ce6906138149088906004016144f1565b60206040518083038186803b15801561382c57600080fd5b505afa158015613840573d6000803e3d6000fd5b505050506040513d601f19601f8201168201806040525081019061386491906143ed565b90506000856001600160a01b03166323b872dd8630876040518463ffffffff1660e01b815260040161389893929190614505565b602060405180830381600087803b1580156138b257600080fd5b505af11580156138c6573d6000803e3d6000fd5b505050506040513d601f19601f820116820180604052508101906138ea919061437e565b9050806139095760405162461bcd60e51b815260040161076d90614b89565b6008546001600160a01b0316633fdddaa2876139258688613e35565b856040518463ffffffff1660e01b81526004016139449392919061458a565b600060405180830381600087803b15801561395e57600080fd5b505af1158015613972573d6000803e3d6000fd5b50505050505050505050565b6109a6823083613657565b6008546001600160a01b0316156139b25760405162461bcd60e51b815260040161076d90614924565b68056bc75e2d631000008110156139db5760405162461bcd60e51b815260040161076d9061494c565b6b033b2e3c9fd0803ce8000000811115613a075760405162461bcd60e51b815260040161076d9061483d565b60095465010000000000900460ff1615613a215760188190555b613a2a8161189f565b613a34338261099c565b600760009054906101000a90046001600160a01b03166001600160a01b031663d556c5dc6040518163ffffffff1660e01b8152600401602060405180830381600087803b158015613a8457600080fd5b505af1158015613a98573d6000803e3d6000fd5b505050506040513d601f19601f82011682018060405250810190613abc919061439a565b600880546001600160a01b0319166001600160a01b0392831617908190556040805163632c068960e11b81529051919092169163c6580d12916004808301926020929190829003018186803b158015613b1457600080fd5b505afa158015613b28573d6000803e3d6000fd5b505050506040513d601f19601f82011682018060405250810190613b4c91906143ed565b15613b695760405162461bcd60e51b815260040161076d90614ac5565b60005b601354811015613d2b57600060138281548110613b8557fe5b6000918252602082200154601480546001600160a01b0390921693509084908110613bac57fe5b906000526020600020015490506000600a6002018481548110613bcb57fe5b60009182526020822001546040516323b872dd60e01b81529092506001600160a01b038516906323b872dd90613c0990339030908890600401614505565b602060405180830381600087803b158015613c2357600080fd5b505af1158015613c37573d6000803e3d6000fd5b505050506040513d601f19601f82011682018060405250810190613c5b919061437e565b905080613c7a5760405162461bcd60e51b815260040161076d90614b89565b600854613c96906001600160a01b038681169116600019613eef565b905080613cb55760405162461bcd60e51b815260040161076d90614b89565b600854604051631c9c3ca760e31b81526001600160a01b039091169063e4e1e53890613ce99087908790879060040161458a565b600060405180830381600087803b158015613d0357600080fd5b505af1158015613d17573d6000803e3d6000fd5b505060019096019550613b6c945050505050565b505b60135415613d67576013805480613d4057fe5b600082815260209020810160001990810180546001600160a01b0319169055019055613d2d565b6008546012546040516334e1990760e01b81526001600160a01b03909216916334e1990791613d9891600401614d19565b600060405180830381600087803b158015613db257600080fd5b505af1158015613dc6573d6000803e3d6000fd5b50506008546040516324dacaa960e11b81526001600160a01b0390911692506349b595529150613dfb906001906004016145ab565b600060405180830381600087803b158015613e1557600080fd5b505af1158015613e29573d6000803e3d6000fd5b50506000601255505050565b6000828201838110156112005760405162461bcd60e51b815260040161076d90614c0c565b600080838311613e705750508082036000613e78565b505081810360015b9250929050565b30600090815260016020526040902054613e999082613e35565b3060009081526001602052604081209190915554613eb79082613e35565b60009081556040513091907fddf252ad1be2c89b69c2b068fc378daa952ba7f163c4a11628f55a4df523b3ef9061364c908590614d19565b600080846001600160a01b031663dd62ed3e30866040518363ffffffff1660e01b8152600401613f20929190614529565b60206040518083038186803b158015613f3857600080fd5b505afa158015613f4c573d6000803e3d6000fd5b505050506040513d601f19601f82011682018060405250810190613f7091906143ed565b905082811415613f84576001915050611200565b80156140135760405163095ea7b360e01b81526001600160a01b0386169063095ea7b390613fb9908790600090600401614571565b602060405180830381600087803b158015613fd357600080fd5b505af1158015613fe7573d6000803e3d6000fd5b505050506040513d601f19601f8201168201806040525081019061400b919061437e565b915050611200565b60405163095ea7b360e01b81526001600160a01b0386169063095ea7b3906140419087908790600401614571565b602060405180830381600087803b15801561405b57600080fd5b505af115801561406f573d6000803e3d6000fd5b505050506040513d601f19601f82011682018060405250810190614093919061437e565b95945050505050565b60008083601f8401126140ad578081fd5b50813567ffffffffffffffff8111156140c4578182fd5b6020830191508360208083028501011115613e7857600080fd5b600082601f8301126140ee578081fd5b81516141016140fc82614d65565b614d3e565b81815291506020808301908481018184028601820187101561412257600080fd5b60005b8481101561414157815184529282019290820190600101614125565b505050505092915050565b60006020828403121561415d578081fd5b813561120081614d90565b6000806040838503121561417a578081fd5b823561418581614d90565b9150602083013561419581614d90565b809150509250929050565b6000806000606084860312156141b4578081fd5b83356141bf81614d90565b925060208401356141cf81614d90565b929592945050506040919091013590565b600080604083850312156141f2578182fd5b82356141fd81614d90565b946020939093013593505050565b60008060006060848603121561421f578283fd5b833561422a81614d90565b95602085013595506040909401359392505050565b60006020808385031215614251578182fd5b825167ffffffffffffffff811115614267578283fd5b8301601f81018513614277578283fd5b80516142856140fc82614d65565b81815283810190838501858402850186018910156142a1578687fd5b8694505b838510156142cc5780516142b881614d90565b8352600194909401939185019185016142a5565b50979650505050505050565b600080600080606085870312156142ed578081fd5b843567ffffffffffffffff811115614303578182fd5b61430f8782880161409c565b90989097506020870135966040013595509350505050565b600060208284031215614338578081fd5b815167ffffffffffffffff81111561434e578182fd5b61435a848285016140de565b949350505050565b600060208284031215614373578081fd5b813561120081614da5565b60006020828403121561438f578081fd5b815161120081614da5565b6000602082840312156143ab578081fd5b815161120081614d90565b6000602082840312156143c7578081fd5b813560068110611200578182fd5b6000602082840312156143e6578081fd5b5035919050565b6000602082840312156143fe578081fd5b5051919050565b600080600060408486031215614419578081fd5b83359250602084013567ffffffffffffffff811115614436578182fd5b6144428682870161409c565b9497909650939450505050565b60008060408385031215614461578182fd5b505080516020909101519092909150565b600080600060608486031215614486578081fd5b8351925060208401519150604084015167ffffffffffffffff8111156144aa578182fd5b6144b6868287016140de565b9150509250925092565b6000806000606084860312156144d4578081fd5b505081359360208301359350604090920135919050565b15159052565b6001600160a01b0391909116815260200190565b6001600160a01b039384168152919092166020820152604081019190915260600190565b6001600160a01b0392831681529116602082015260400190565b6001600160a01b03959095168552921515602085015260408401919091526060830152608082015260a00190565b6001600160a01b03929092168252602082015260400190565b6001600160a01b039390931683526020830191909152604082015260600190565b901515815260200190565b9515158652931515602086015291151560408501521515606084015215156080830152151560a082015260c00190565b60006020825282602083015282846040840137818301604090810191909152601f909201601f19160101919050565b6001600160a01b03958616815293909416602084015260408301919091526060820152608081019190915260a00190565b6001600160a01b0393841681529183166020830152909116604082015260600190565b6001600160a01b03958616815293851660208501529190931660408301526060820192909252608081019190915260a00190565b6001600160a01b0386811682528516602082015260408101849052608060608201819052810182905260006001600160fb1b038311156146db578081fd5b60208302808560a08501379190910160a00190815295945050505050565b6001600160a01b0394851681529290931660208301526040820152606081019190915260800190565b6000602080835283518082850152825b8181101561474e57858101830151858201604001528201614732565b8181111561475f5783604083870101525b50601f01601f1916929092016040019392505050565b60208082526012908201527122a9292fa727aa2fa1a7a72a2927a62622a960711b604082015260600190565b6020808252601c908201527f4552525f43414e4e4f545f4144445f52454d4f56455f544f4b454e5300000000604082015260600190565b60208082526019908201527f4552525f554e535550504f525445445f4f5045524154494f4e00000000000000604082015260600190565b60208082526014908201527311549497d393d517d3d397d5d2125511531254d560621b604082015260600190565b60208082526013908201527208aa4a4be929c92a8bea6aaa0a098b2be9a82b606b1b604082015260600190565b60208082526010908201526f4552525f5a45524f5f4144445245535360801b604082015260600190565b60208082526018908201527f4552525f43414e4e4f545f57484954454c4953545f4c50530000000000000000604082015260600190565b60208082526016908201527511549497d31417d393d517d5d2125511531254d5115160521b604082015260600190565b6020808252600f908201526e11549497d393d517d0d49150551151608a1b604082015260600190565b6020808252600e908201526d11549497d254d7d0d4915055115160921b604082015260600190565b60208082526013908201527222a9292fa4a724aa2fa9aaa828262cafa6a4a760691b604082015260600190565b60208082526010908201526f11549497d1125597d25395115493905360821b604082015260600190565b6020808252600b908201526a4552525f5245454e54525960a81b604082015260600190565b6020808252600d908201526c11549497d393d517d093d55391609a1b604082015260600190565b60208082526010908201526f4552525f5245454e5452595f5649455760801b604082015260600190565b6020808252601390820152724552525f494e56414c49445f4144445245535360681b604082015260600190565b60208082526010908201526f4552525f4d554c5f4f564552464c4f5760801b604082015260600190565b60208082526015908201527404552525f43414e4e4f545f4348414e47455f43415605c1b604082015260600190565b6020808252600c908201526b4552525f4449565f5a45524f60a01b604082015260600190565b6020808252601490820152734552525f4e4f4e5a45524f5f455849545f46454560601b604082015260600190565b60208082526015908201527411549497d0d05417d31253525517d4915050d21151605a1b604082015260600190565b60208082526016908201527522a9292fa821aa27a5a2a72fa120a22fa1a0a62622a960511b604082015260600190565b6020808252601b908201527f4552525f52454d4f56455f574954485f4144445f50454e44494e470000000000604082015260600190565b6020808252600f908201526e4552525f45524332305f46414c534560881b604082015260600190565b60208082526015908201527404552525f4e4f545f5041555341424c455f5357415605c1b604082015260600190565b6020808252601190820152704552525f5355425f554e444552464c4f5760781b604082015260600190565b60208082526010908201526f4552525f4144445f4f564552464c4f5760801b604082015260600190565b6020808252601d908201527f4552525f4e4f545f434f4e464947555241424c455f535741505f464545000000604082015260600190565b6020808252601c908201527f4552525f4e4f5f5550444154455f445552494e475f4752414455414c00000000604082015260600190565b600060e082019050835460ff80821615158452808260081c1615156020850152808260101c1615156040850152808260181c1615156060850152614cf060808501828460201c166144eb565b614d0260a08501828460281c166144eb565b5050614d0d83614d85565b60c08301529392505050565b90815260200190565b918252602082015260400190565b60ff91909116815260200190565b60405181810167ffffffffffffffff81118282101715614d5d57600080fd5b604052919050565b600067ffffffffffffffff821115614d7b578081fd5b5060209081020190565b806006811061149957fe5b6001600160a01b03811681146110d657600080fd5b80151581146110d657600080fdfe8c5be1e5ebec7d5bd14f71427d1e84f3dd0314c0f7b2291e5b200ac8c7c3b925a2646970667358221220b2bd7eef20f23a210c45491c990240712e810dea192fb921fcd446808d55f65f64736f6c634300060c0033a2646970667358221220ec8c0f95400904093686340a5a123555b1dd7e82c11eaaf2d808cf2641da0ad464736f6c634300060c0033",
  "immutableReferences": {},
  "source": "// SPDX-License-Identifier: GPL-3.0-or-later\npragma solidity 0.6.12;\n\n// Needed to handle structures externally\npragma experimental ABIEncoderV2;\n\n// Imports\n\nimport \"./ElasticSupplyPool.sol\";\n\n// Contracts\n\n/**\n * @author Balancer Labs\n * @title Configurable Rights Pool Factory - create parameterized smart pools\n * @dev Rights are held in a corresponding struct in ConfigurableRightsPool\n *      Index values are as follows:\n *      0: canPauseSwapping - can setPublicSwap back to false after turning it on\n *                            by default, it is off on initialization and can only be turned on\n *      1: canChangeSwapFee - can setSwapFee after initialization (by default, it is fixed at create time)\n *      2: canChangeWeights - can bind new token weights (allowed by default in base pool)\n *      3: canAddRemoveTokens - can bind/unbind tokens (allowed by default in base pool)\n *      4: canWhitelistLPs - if set, only whitelisted addresses can join pools\n *                           (enables private pools with more than one LP)\n */\ncontract ESPFactory {\n    // State variables\n\n    // Keep a list of all Elastic Supply Pools\n    mapping(address => bool) private _isEsp;\n\n    // Event declarations\n\n    // Log the address of each new smart pool, and its creator\n    event LogNewEsp(\n        address indexed caller,\n        address indexed pool\n    );\n\n    // Function declarations\n\n    /**\n     * @notice Create a new ESP\n     * @dev emits a LogNewESP event\n     * @param factoryAddress - the BFactory instance used to create the underlying pool\n     * @param poolParams - CRP pool parameters\n     * @param rights - struct of permissions, configuring this CRP instance (see above for definitions)\n     */\n    function newEsp(\n        address factoryAddress,\n        ConfigurableRightsPool.PoolParams calldata poolParams,\n        RightsManager.Rights calldata rights\n    )\n        external\n        returns (ElasticSupplyPool)\n    {\n        require(poolParams.constituentTokens.length >= BalancerConstants.MIN_ASSET_LIMIT, \"ERR_TOO_FEW_TOKENS\");\n\n        // Arrays must be parallel\n        require(poolParams.tokenBalances.length == poolParams.constituentTokens.length, \"ERR_START_BALANCES_MISMATCH\");\n        require(poolParams.tokenWeights.length == poolParams.constituentTokens.length, \"ERR_START_WEIGHTS_MISMATCH\");\n\n        ElasticSupplyPool esp = new ElasticSupplyPool(\n            factoryAddress,\n            poolParams,\n            rights\n        );\n\n        emit LogNewEsp(msg.sender, address(esp));\n\n        _isEsp[address(esp)] = true;\n        esp.setController(msg.sender);\n\n        return esp;\n    }\n\n    /**\n     * @notice Check to see if a given address is an ESP\n     * @param addr - address to check\n     * @return boolean indicating whether it is an ESP\n     */\n    function isEsp(address addr) external view returns (bool) {\n        return _isEsp[addr];\n    }\n}\n",
  "sourcePath": "/home/thedavidmeister/configurable-rights-pool/contracts/templates/ESPFactory.sol",
  "compiler": {
    "name": "solc",
    "version": "0.6.12+commit.27d51765.Emscripten.clang"
  },
  "schemaVersion": "3.4.3",
  "updatedAt": "2021-08-28T06:05:41.167Z",
  "devdoc": {
    "author": "Balancer Labs",
    "details": "Rights are held in a corresponding struct in ConfigurableRightsPool      Index values are as follows:      0: canPauseSwapping - can setPublicSwap back to false after turning it on                            by default, it is off on initialization and can only be turned on      1: canChangeSwapFee - can setSwapFee after initialization (by default, it is fixed at create time)      2: canChangeWeights - can bind new token weights (allowed by default in base pool)      3: canAddRemoveTokens - can bind/unbind tokens (allowed by default in base pool)      4: canWhitelistLPs - if set, only whitelisted addresses can join pools                           (enables private pools with more than one LP)",
    "kind": "dev",
    "methods": {
      "isEsp(address)": {
        "params": {
          "addr": "- address to check"
        },
        "returns": {
          "_0": "boolean indicating whether it is an ESP"
        }
      },
      "newEsp(address,(string,string,address[],uint256[],uint256[],uint256),(bool,bool,bool,bool,bool,bool))": {
        "details": "emits a LogNewESP event",
        "params": {
          "factoryAddress": "- the BFactory instance used to create the underlying pool",
          "poolParams": "- CRP pool parameters",
          "rights": "- struct of permissions, configuring this CRP instance (see above for definitions)"
        }
      }
    },
    "title": "Configurable Rights Pool Factory - create parameterized smart pools",
    "version": 1
  },
  "userdoc": {
    "kind": "user",
    "methods": {
      "isEsp(address)": {
        "notice": "Check to see if a given address is an ESP"
      },
      "newEsp(address,(string,string,address[],uint256[],uint256[],uint256),(bool,bool,bool,bool,bool,bool))": {
        "notice": "Create a new ESP"
      }
    },
    "version": 1
  }
}